{
	"contracts/token.sol": {
		"karaERC20": {
			"abi": [
				{
					"inputs": [
						{
							"internalType": "uint256",
							"name": "_totalSupply",
							"type": "uint256"
						},
						{
							"internalType": "uint256",
							"name": "_decimals",
							"type": "uint256"
						},
						{
							"internalType": "string",
							"name": "_name",
							"type": "string"
						},
						{
							"internalType": "string",
							"name": "_symbol",
							"type": "string"
						}
					],
					"stateMutability": "nonpayable",
					"type": "constructor"
				},
				{
					"anonymous": false,
					"inputs": [
						{
							"indexed": true,
							"internalType": "address",
							"name": "_owner",
							"type": "address"
						},
						{
							"indexed": true,
							"internalType": "address",
							"name": "_spender",
							"type": "address"
						},
						{
							"indexed": false,
							"internalType": "uint256",
							"name": "_value",
							"type": "uint256"
						}
					],
					"name": "Approval",
					"type": "event"
				},
				{
					"anonymous": false,
					"inputs": [
						{
							"indexed": true,
							"internalType": "address",
							"name": "_from",
							"type": "address"
						},
						{
							"indexed": true,
							"internalType": "address",
							"name": "_to",
							"type": "address"
						},
						{
							"indexed": false,
							"internalType": "uint256",
							"name": "_value",
							"type": "uint256"
						}
					],
					"name": "Transfer",
					"type": "event"
				},
				{
					"inputs": [
						{
							"internalType": "address",
							"name": "_owner",
							"type": "address"
						},
						{
							"internalType": "address",
							"name": "_spender",
							"type": "address"
						}
					],
					"name": "allowance",
					"outputs": [
						{
							"internalType": "uint256",
							"name": "",
							"type": "uint256"
						}
					],
					"stateMutability": "view",
					"type": "function"
				},
				{
					"inputs": [
						{
							"internalType": "address",
							"name": "_spender",
							"type": "address"
						},
						{
							"internalType": "uint256",
							"name": "_value",
							"type": "uint256"
						}
					],
					"name": "approve",
					"outputs": [
						{
							"internalType": "bool",
							"name": "",
							"type": "bool"
						}
					],
					"stateMutability": "nonpayable",
					"type": "function"
				},
				{
					"inputs": [
						{
							"internalType": "address",
							"name": "_owner",
							"type": "address"
						}
					],
					"name": "balanceOf",
					"outputs": [
						{
							"internalType": "uint256",
							"name": "balance",
							"type": "uint256"
						}
					],
					"stateMutability": "view",
					"type": "function"
				},
				{
					"inputs": [
						{
							"internalType": "address",
							"name": "_receiver",
							"type": "address"
						}
					],
					"name": "buyToken",
					"outputs": [
						{
							"internalType": "bool",
							"name": "",
							"type": "bool"
						}
					],
					"stateMutability": "payable",
					"type": "function"
				},
				{
					"inputs": [],
					"name": "decimals",
					"outputs": [
						{
							"internalType": "uint256",
							"name": "",
							"type": "uint256"
						}
					],
					"stateMutability": "view",
					"type": "function"
				},
				{
					"inputs": [],
					"name": "name",
					"outputs": [
						{
							"internalType": "string",
							"name": "",
							"type": "string"
						}
					],
					"stateMutability": "view",
					"type": "function"
				},
				{
					"inputs": [],
					"name": "symbol",
					"outputs": [
						{
							"internalType": "string",
							"name": "",
							"type": "string"
						}
					],
					"stateMutability": "view",
					"type": "function"
				},
				{
					"inputs": [],
					"name": "tokenPrice",
					"outputs": [
						{
							"internalType": "uint256",
							"name": "",
							"type": "uint256"
						}
					],
					"stateMutability": "view",
					"type": "function"
				},
				{
					"inputs": [],
					"name": "totalSupply",
					"outputs": [
						{
							"internalType": "uint256",
							"name": "",
							"type": "uint256"
						}
					],
					"stateMutability": "view",
					"type": "function"
				},
				{
					"inputs": [],
					"name": "totalSupply_",
					"outputs": [
						{
							"internalType": "uint256",
							"name": "",
							"type": "uint256"
						}
					],
					"stateMutability": "view",
					"type": "function"
				},
				{
					"inputs": [
						{
							"internalType": "address",
							"name": "_to",
							"type": "address"
						},
						{
							"internalType": "uint256",
							"name": "_value",
							"type": "uint256"
						}
					],
					"name": "transfer",
					"outputs": [
						{
							"internalType": "bool",
							"name": "",
							"type": "bool"
						}
					],
					"stateMutability": "nonpayable",
					"type": "function"
				},
				{
					"inputs": [
						{
							"internalType": "address",
							"name": "_from",
							"type": "address"
						},
						{
							"internalType": "address",
							"name": "_to",
							"type": "address"
						},
						{
							"internalType": "uint256",
							"name": "_value",
							"type": "uint256"
						}
					],
					"name": "transferFrom",
					"outputs": [
						{
							"internalType": "bool",
							"name": "",
							"type": "bool"
						}
					],
					"stateMutability": "nonpayable",
					"type": "function"
				}
			],
			"devdoc": {
				"kind": "dev",
				"methods": {},
				"version": 1
			},
			"evm": {
				"assembly": "    /* \"contracts/token.sol\":60:3869  contract karaERC20 {\r... */\n  mstore(0x40, 0x80)\n    /* \"contracts/token.sol\":1158:1473  constructor(\r... */\n  callvalue\n  dup1\n  iszero\n  tag_1\n  jumpi\n  0x00\n  dup1\n  revert\ntag_1:\n  pop\n  mload(0x40)\n  sub(codesize, bytecodeSize)\n  dup1\n  bytecodeSize\n  dup4\n  codecopy\n  dup2\n  dup2\n  add\n  0x40\n  mstore\n  dup2\n  add\n  swap1\n  tag_2\n  swap2\n  swap1\n  tag_3\n  jump\t// in\ntag_2:\n    /* \"contracts/token.sol\":1324:1336  _totalSupply */\n  dup4\n    /* \"contracts/token.sol\":1309:1321  totalSupply_ */\n  0x03\n    /* \"contracts/token.sol\":1309:1336  totalSupply_ = _totalSupply */\n  dup2\n  swap1\n  sstore\n  pop\n    /* \"contracts/token.sol\":1358:1367  _decimals */\n  dup3\n    /* \"contracts/token.sol\":1347:1355  decimals */\n  0x02\n    /* \"contracts/token.sol\":1347:1367  decimals = _decimals */\n  dup2\n  swap1\n  sstore\n  pop\n    /* \"contracts/token.sol\":1385:1390  _name */\n  dup2\n    /* \"contracts/token.sol\":1378:1382  name */\n  0x04\n    /* \"contracts/token.sol\":1378:1390  name = _name */\n  swap1\n  dup1\n  mload\n  swap1\n  0x20\n  add\n  swap1\n  tag_6\n  swap3\n  swap2\n  swap1\n  tag_7\n  jump\t// in\ntag_6:\n  pop\n    /* \"contracts/token.sol\":1410:1417  _symbol */\n  dup1\n    /* \"contracts/token.sol\":1401:1407  symbol */\n  0x05\n    /* \"contracts/token.sol\":1401:1417  symbol = _symbol */\n  swap1\n  dup1\n  mload\n  swap1\n  0x20\n  add\n  swap1\n  tag_8\n  swap3\n  swap2\n  swap1\n  tag_7\n  jump\t// in\ntag_8:\n  pop\n    /* \"contracts/token.sol\":1453:1465  totalSupply_ */\n  sload(0x03)\n    /* \"contracts/token.sol\":1430:1438  balances */\n  0x00\n    /* \"contracts/token.sol\":1430:1450  balances[msg.sender] */\n  dup1\n    /* \"contracts/token.sol\":1439:1449  msg.sender */\n  caller\n    /* \"contracts/token.sol\":1430:1450  balances[msg.sender] */\n  0xffffffffffffffffffffffffffffffffffffffff\n  and\n  0xffffffffffffffffffffffffffffffffffffffff\n  and\n  dup2\n  mstore\n  0x20\n  add\n  swap1\n  dup2\n  mstore\n  0x20\n  add\n  0x00\n  keccak256\n    /* \"contracts/token.sol\":1430:1465  balances[msg.sender] = totalSupply_ */\n  dup2\n  swap1\n  sstore\n  pop\n    /* \"contracts/token.sol\":1158:1473  constructor(\r... */\n  pop\n  pop\n  pop\n  pop\n    /* \"contracts/token.sol\":60:3869  contract karaERC20 {\r... */\n  jump(tag_9)\ntag_7:\n  dup3\n  dup1\n  sload\n  tag_10\n  swap1\n  tag_11\n  jump\t// in\ntag_10:\n  swap1\n  0x00\n  mstore\n  keccak256(0x00, 0x20)\n  swap1\n  0x1f\n  add\n  0x20\n  swap1\n  div\n  dup2\n  add\n  swap3\n  dup3\n  tag_13\n  jumpi\n  0x00\n  dup6\n  sstore\n  jump(tag_12)\ntag_13:\n  dup3\n  0x1f\n  lt\n  tag_14\n  jumpi\n  dup1\n  mload\n  not(0xff)\n  and\n  dup4\n  dup1\n  add\n  or\n  dup6\n  sstore\n  jump(tag_12)\ntag_14:\n  dup3\n  dup1\n  add\n  0x01\n  add\n  dup6\n  sstore\n  dup3\n  iszero\n  tag_12\n  jumpi\n  swap2\n  dup3\n  add\ntag_15:\n  dup3\n  dup2\n  gt\n  iszero\n  tag_16\n  jumpi\n  dup3\n  mload\n  dup3\n  sstore\n  swap2\n  0x20\n  add\n  swap2\n  swap1\n  0x01\n  add\n  swap1\n  jump(tag_15)\ntag_16:\ntag_12:\n  pop\n  swap1\n  pop\n  tag_17\n  swap2\n  swap1\n  tag_18\n  jump\t// in\ntag_17:\n  pop\n  swap1\n  jump\t// out\ntag_18:\ntag_19:\n  dup1\n  dup3\n  gt\n  iszero\n  tag_20\n  jumpi\n  0x00\n  dup2\n  0x00\n  swap1\n  sstore\n  pop\n  0x01\n  add\n  jump(tag_19)\ntag_20:\n  pop\n  swap1\n  jump\t// out\n    /* \"#utility.yul\":7:428   */\ntag_22:\n    /* \"#utility.yul\":96:101   */\n  0x00\n    /* \"#utility.yul\":121:187   */\n  tag_24\n    /* \"#utility.yul\":137:186   */\n  tag_25\n    /* \"#utility.yul\":179:185   */\n  dup5\n    /* \"#utility.yul\":137:186   */\n  tag_26\n  jump\t// in\ntag_25:\n    /* \"#utility.yul\":121:187   */\n  tag_27\n  jump\t// in\ntag_24:\n    /* \"#utility.yul\":112:187   */\n  swap1\n  pop\n    /* \"#utility.yul\":210:216   */\n  dup3\n    /* \"#utility.yul\":203:208   */\n  dup2\n    /* \"#utility.yul\":196:217   */\n  mstore\n    /* \"#utility.yul\":248:252   */\n  0x20\n    /* \"#utility.yul\":241:246   */\n  dup2\n    /* \"#utility.yul\":237:253   */\n  add\n    /* \"#utility.yul\":286:289   */\n  dup5\n    /* \"#utility.yul\":277:283   */\n  dup5\n    /* \"#utility.yul\":272:275   */\n  dup5\n    /* \"#utility.yul\":268:284   */\n  add\n    /* \"#utility.yul\":265:290   */\n  gt\n    /* \"#utility.yul\":262:374   */\n  iszero\n  tag_28\n  jumpi\n    /* \"#utility.yul\":293:372   */\n  tag_29\n  tag_30\n  jump\t// in\ntag_29:\n    /* \"#utility.yul\":262:374   */\ntag_28:\n    /* \"#utility.yul\":383:422   */\n  tag_31\n    /* \"#utility.yul\":415:421   */\n  dup5\n    /* \"#utility.yul\":410:413   */\n  dup3\n    /* \"#utility.yul\":405:408   */\n  dup6\n    /* \"#utility.yul\":383:422   */\n  tag_32\n  jump\t// in\ntag_31:\n    /* \"#utility.yul\":102:428   */\n  pop\n    /* \"#utility.yul\":7:428   */\n  swap4\n  swap3\n  pop\n  pop\n  pop\n  jump\t// out\n    /* \"#utility.yul\":448:803   */\ntag_33:\n    /* \"#utility.yul\":515:520   */\n  0x00\n    /* \"#utility.yul\":564:567   */\n  dup3\n    /* \"#utility.yul\":557:561   */\n  0x1f\n    /* \"#utility.yul\":549:555   */\n  dup4\n    /* \"#utility.yul\":545:562   */\n  add\n    /* \"#utility.yul\":541:568   */\n  slt\n    /* \"#utility.yul\":531:653   */\n  tag_35\n  jumpi\n    /* \"#utility.yul\":572:651   */\n  tag_36\n  tag_37\n  jump\t// in\ntag_36:\n    /* \"#utility.yul\":531:653   */\ntag_35:\n    /* \"#utility.yul\":682:688   */\n  dup2\n    /* \"#utility.yul\":676:689   */\n  mload\n    /* \"#utility.yul\":707:797   */\n  tag_38\n    /* \"#utility.yul\":793:796   */\n  dup5\n    /* \"#utility.yul\":785:791   */\n  dup3\n    /* \"#utility.yul\":778:782   */\n  0x20\n    /* \"#utility.yul\":770:776   */\n  dup7\n    /* \"#utility.yul\":766:783   */\n  add\n    /* \"#utility.yul\":707:797   */\n  tag_22\n  jump\t// in\ntag_38:\n    /* \"#utility.yul\":698:797   */\n  swap2\n  pop\n    /* \"#utility.yul\":521:803   */\n  pop\n    /* \"#utility.yul\":448:803   */\n  swap3\n  swap2\n  pop\n  pop\n  jump\t// out\n    /* \"#utility.yul\":809:952   */\ntag_39:\n    /* \"#utility.yul\":866:871   */\n  0x00\n    /* \"#utility.yul\":897:903   */\n  dup2\n    /* \"#utility.yul\":891:904   */\n  mload\n    /* \"#utility.yul\":882:904   */\n  swap1\n  pop\n    /* \"#utility.yul\":913:946   */\n  tag_41\n    /* \"#utility.yul\":940:945   */\n  dup2\n    /* \"#utility.yul\":913:946   */\n  tag_42\n  jump\t// in\ntag_41:\n    /* \"#utility.yul\":809:952   */\n  swap3\n  swap2\n  pop\n  pop\n  jump\t// out\n    /* \"#utility.yul\":958:2124   */\ntag_3:\n    /* \"#utility.yul\":1075:1081   */\n  0x00\n    /* \"#utility.yul\":1083:1089   */\n  dup1\n    /* \"#utility.yul\":1091:1097   */\n  0x00\n    /* \"#utility.yul\":1099:1105   */\n  dup1\n    /* \"#utility.yul\":1148:1151   */\n  0x80\n    /* \"#utility.yul\":1136:1145   */\n  dup6\n    /* \"#utility.yul\":1127:1134   */\n  dup8\n    /* \"#utility.yul\":1123:1146   */\n  sub\n    /* \"#utility.yul\":1119:1152   */\n  slt\n    /* \"#utility.yul\":1116:1236   */\n  iszero\n  tag_44\n  jumpi\n    /* \"#utility.yul\":1155:1234   */\n  tag_45\n  tag_46\n  jump\t// in\ntag_45:\n    /* \"#utility.yul\":1116:1236   */\ntag_44:\n    /* \"#utility.yul\":1275:1276   */\n  0x00\n    /* \"#utility.yul\":1300:1364   */\n  tag_47\n    /* \"#utility.yul\":1356:1363   */\n  dup8\n    /* \"#utility.yul\":1347:1353   */\n  dup3\n    /* \"#utility.yul\":1336:1345   */\n  dup9\n    /* \"#utility.yul\":1332:1354   */\n  add\n    /* \"#utility.yul\":1300:1364   */\n  tag_39\n  jump\t// in\ntag_47:\n    /* \"#utility.yul\":1290:1364   */\n  swap5\n  pop\n    /* \"#utility.yul\":1246:1374   */\n  pop\n    /* \"#utility.yul\":1413:1415   */\n  0x20\n    /* \"#utility.yul\":1439:1503   */\n  tag_48\n    /* \"#utility.yul\":1495:1502   */\n  dup8\n    /* \"#utility.yul\":1486:1492   */\n  dup3\n    /* \"#utility.yul\":1475:1484   */\n  dup9\n    /* \"#utility.yul\":1471:1493   */\n  add\n    /* \"#utility.yul\":1439:1503   */\n  tag_39\n  jump\t// in\ntag_48:\n    /* \"#utility.yul\":1429:1503   */\n  swap4\n  pop\n    /* \"#utility.yul\":1384:1513   */\n  pop\n    /* \"#utility.yul\":1573:1575   */\n  0x40\n    /* \"#utility.yul\":1562:1571   */\n  dup6\n    /* \"#utility.yul\":1558:1576   */\n  add\n    /* \"#utility.yul\":1552:1577   */\n  mload\n    /* \"#utility.yul\":1604:1622   */\n  0xffffffffffffffff\n    /* \"#utility.yul\":1596:1602   */\n  dup2\n    /* \"#utility.yul\":1593:1623   */\n  gt\n    /* \"#utility.yul\":1590:1707   */\n  iszero\n  tag_49\n  jumpi\n    /* \"#utility.yul\":1626:1705   */\n  tag_50\n  tag_51\n  jump\t// in\ntag_50:\n    /* \"#utility.yul\":1590:1707   */\ntag_49:\n    /* \"#utility.yul\":1731:1805   */\n  tag_52\n    /* \"#utility.yul\":1797:1804   */\n  dup8\n    /* \"#utility.yul\":1788:1794   */\n  dup3\n    /* \"#utility.yul\":1777:1786   */\n  dup9\n    /* \"#utility.yul\":1773:1795   */\n  add\n    /* \"#utility.yul\":1731:1805   */\n  tag_33\n  jump\t// in\ntag_52:\n    /* \"#utility.yul\":1721:1805   */\n  swap3\n  pop\n    /* \"#utility.yul\":1523:1815   */\n  pop\n    /* \"#utility.yul\":1875:1877   */\n  0x60\n    /* \"#utility.yul\":1864:1873   */\n  dup6\n    /* \"#utility.yul\":1860:1878   */\n  add\n    /* \"#utility.yul\":1854:1879   */\n  mload\n    /* \"#utility.yul\":1906:1924   */\n  0xffffffffffffffff\n    /* \"#utility.yul\":1898:1904   */\n  dup2\n    /* \"#utility.yul\":1895:1925   */\n  gt\n    /* \"#utility.yul\":1892:2009   */\n  iszero\n  tag_53\n  jumpi\n    /* \"#utility.yul\":1928:2007   */\n  tag_54\n  tag_51\n  jump\t// in\ntag_54:\n    /* \"#utility.yul\":1892:2009   */\ntag_53:\n    /* \"#utility.yul\":2033:2107   */\n  tag_55\n    /* \"#utility.yul\":2099:2106   */\n  dup8\n    /* \"#utility.yul\":2090:2096   */\n  dup3\n    /* \"#utility.yul\":2079:2088   */\n  dup9\n    /* \"#utility.yul\":2075:2097   */\n  add\n    /* \"#utility.yul\":2033:2107   */\n  tag_33\n  jump\t// in\ntag_55:\n    /* \"#utility.yul\":2023:2107   */\n  swap2\n  pop\n    /* \"#utility.yul\":1825:2117   */\n  pop\n    /* \"#utility.yul\":958:2124   */\n  swap3\n  swap6\n  swap2\n  swap5\n  pop\n  swap3\n  pop\n  jump\t// out\n    /* \"#utility.yul\":2130:2259   */\ntag_27:\n    /* \"#utility.yul\":2164:2170   */\n  0x00\n    /* \"#utility.yul\":2191:2211   */\n  tag_57\n  tag_58\n  jump\t// in\ntag_57:\n    /* \"#utility.yul\":2181:2211   */\n  swap1\n  pop\n    /* \"#utility.yul\":2220:2253   */\n  tag_59\n    /* \"#utility.yul\":2248:2252   */\n  dup3\n    /* \"#utility.yul\":2240:2246   */\n  dup3\n    /* \"#utility.yul\":2220:2253   */\n  tag_60\n  jump\t// in\ntag_59:\n    /* \"#utility.yul\":2130:2259   */\n  swap2\n  swap1\n  pop\n  jump\t// out\n    /* \"#utility.yul\":2265:2340   */\ntag_58:\n    /* \"#utility.yul\":2298:2304   */\n  0x00\n    /* \"#utility.yul\":2331:2333   */\n  0x40\n    /* \"#utility.yul\":2325:2334   */\n  mload\n    /* \"#utility.yul\":2315:2334   */\n  swap1\n  pop\n    /* \"#utility.yul\":2265:2340   */\n  swap1\n  jump\t// out\n    /* \"#utility.yul\":2346:2654   */\ntag_26:\n    /* \"#utility.yul\":2408:2412   */\n  0x00\n    /* \"#utility.yul\":2498:2516   */\n  0xffffffffffffffff\n    /* \"#utility.yul\":2490:2496   */\n  dup3\n    /* \"#utility.yul\":2487:2517   */\n  gt\n    /* \"#utility.yul\":2484:2540   */\n  iszero\n  tag_63\n  jumpi\n    /* \"#utility.yul\":2520:2538   */\n  tag_64\n  tag_65\n  jump\t// in\ntag_64:\n    /* \"#utility.yul\":2484:2540   */\ntag_63:\n    /* \"#utility.yul\":2558:2587   */\n  tag_66\n    /* \"#utility.yul\":2580:2586   */\n  dup3\n    /* \"#utility.yul\":2558:2587   */\n  tag_67\n  jump\t// in\ntag_66:\n    /* \"#utility.yul\":2550:2587   */\n  swap1\n  pop\n    /* \"#utility.yul\":2642:2646   */\n  0x20\n    /* \"#utility.yul\":2636:2640   */\n  dup2\n    /* \"#utility.yul\":2632:2647   */\n  add\n    /* \"#utility.yul\":2624:2647   */\n  swap1\n  pop\n    /* \"#utility.yul\":2346:2654   */\n  swap2\n  swap1\n  pop\n  jump\t// out\n    /* \"#utility.yul\":2660:2737   */\ntag_68:\n    /* \"#utility.yul\":2697:2704   */\n  0x00\n    /* \"#utility.yul\":2726:2731   */\n  dup2\n    /* \"#utility.yul\":2715:2731   */\n  swap1\n  pop\n    /* \"#utility.yul\":2660:2737   */\n  swap2\n  swap1\n  pop\n  jump\t// out\n    /* \"#utility.yul\":2743:3050   */\ntag_32:\n    /* \"#utility.yul\":2811:2812   */\n  0x00\n    /* \"#utility.yul\":2821:2934   */\ntag_71:\n    /* \"#utility.yul\":2835:2841   */\n  dup4\n    /* \"#utility.yul\":2832:2833   */\n  dup2\n    /* \"#utility.yul\":2829:2842   */\n  lt\n    /* \"#utility.yul\":2821:2934   */\n  iszero\n  tag_73\n  jumpi\n    /* \"#utility.yul\":2920:2921   */\n  dup1\n    /* \"#utility.yul\":2915:2918   */\n  dup3\n    /* \"#utility.yul\":2911:2922   */\n  add\n    /* \"#utility.yul\":2905:2923   */\n  mload\n    /* \"#utility.yul\":2901:2902   */\n  dup2\n    /* \"#utility.yul\":2896:2899   */\n  dup5\n    /* \"#utility.yul\":2892:2903   */\n  add\n    /* \"#utility.yul\":2885:2924   */\n  mstore\n    /* \"#utility.yul\":2857:2859   */\n  0x20\n    /* \"#utility.yul\":2854:2855   */\n  dup2\n    /* \"#utility.yul\":2850:2860   */\n  add\n    /* \"#utility.yul\":2845:2860   */\n  swap1\n  pop\n    /* \"#utility.yul\":2821:2934   */\n  jump(tag_71)\ntag_73:\n    /* \"#utility.yul\":2952:2958   */\n  dup4\n    /* \"#utility.yul\":2949:2950   */\n  dup2\n    /* \"#utility.yul\":2946:2959   */\n  gt\n    /* \"#utility.yul\":2943:3044   */\n  iszero\n  tag_74\n  jumpi\n    /* \"#utility.yul\":3032:3033   */\n  0x00\n    /* \"#utility.yul\":3023:3029   */\n  dup5\n    /* \"#utility.yul\":3018:3021   */\n  dup5\n    /* \"#utility.yul\":3014:3030   */\n  add\n    /* \"#utility.yul\":3007:3034   */\n  mstore\n    /* \"#utility.yul\":2943:3044   */\ntag_74:\n    /* \"#utility.yul\":2792:3050   */\n  pop\n    /* \"#utility.yul\":2743:3050   */\n  pop\n  pop\n  pop\n  jump\t// out\n    /* \"#utility.yul\":3056:3376   */\ntag_11:\n    /* \"#utility.yul\":3100:3106   */\n  0x00\n    /* \"#utility.yul\":3137:3138   */\n  0x02\n    /* \"#utility.yul\":3131:3135   */\n  dup3\n    /* \"#utility.yul\":3127:3139   */\n  div\n    /* \"#utility.yul\":3117:3139   */\n  swap1\n  pop\n    /* \"#utility.yul\":3184:3185   */\n  0x01\n    /* \"#utility.yul\":3178:3182   */\n  dup3\n    /* \"#utility.yul\":3174:3186   */\n  and\n    /* \"#utility.yul\":3205:3223   */\n  dup1\n    /* \"#utility.yul\":3195:3276   */\n  tag_76\n  jumpi\n    /* \"#utility.yul\":3261:3265   */\n  0x7f\n    /* \"#utility.yul\":3253:3259   */\n  dup3\n    /* \"#utility.yul\":3249:3266   */\n  and\n    /* \"#utility.yul\":3239:3266   */\n  swap2\n  pop\n    /* \"#utility.yul\":3195:3276   */\ntag_76:\n    /* \"#utility.yul\":3323:3325   */\n  0x20\n    /* \"#utility.yul\":3315:3321   */\n  dup3\n    /* \"#utility.yul\":3312:3326   */\n  lt\n    /* \"#utility.yul\":3292:3310   */\n  dup2\n    /* \"#utility.yul\":3289:3327   */\n  eq\n    /* \"#utility.yul\":3286:3370   */\n  iszero\n  tag_77\n  jumpi\n    /* \"#utility.yul\":3342:3360   */\n  tag_78\n  tag_79\n  jump\t// in\ntag_78:\n    /* \"#utility.yul\":3286:3370   */\ntag_77:\n    /* \"#utility.yul\":3107:3376   */\n  pop\n    /* \"#utility.yul\":3056:3376   */\n  swap2\n  swap1\n  pop\n  jump\t// out\n    /* \"#utility.yul\":3382:3663   */\ntag_60:\n    /* \"#utility.yul\":3465:3492   */\n  tag_81\n    /* \"#utility.yul\":3487:3491   */\n  dup3\n    /* \"#utility.yul\":3465:3492   */\n  tag_67\n  jump\t// in\ntag_81:\n    /* \"#utility.yul\":3457:3463   */\n  dup2\n    /* \"#utility.yul\":3453:3493   */\n  add\n    /* \"#utility.yul\":3595:3601   */\n  dup2\n    /* \"#utility.yul\":3583:3593   */\n  dup2\n    /* \"#utility.yul\":3580:3602   */\n  lt\n    /* \"#utility.yul\":3559:3577   */\n  0xffffffffffffffff\n    /* \"#utility.yul\":3547:3557   */\n  dup3\n    /* \"#utility.yul\":3544:3578   */\n  gt\n    /* \"#utility.yul\":3541:3603   */\n  or\n    /* \"#utility.yul\":3538:3626   */\n  iszero\n  tag_82\n  jumpi\n    /* \"#utility.yul\":3606:3624   */\n  tag_83\n  tag_65\n  jump\t// in\ntag_83:\n    /* \"#utility.yul\":3538:3626   */\ntag_82:\n    /* \"#utility.yul\":3646:3656   */\n  dup1\n    /* \"#utility.yul\":3642:3644   */\n  0x40\n    /* \"#utility.yul\":3635:3657   */\n  mstore\n    /* \"#utility.yul\":3425:3663   */\n  pop\n    /* \"#utility.yul\":3382:3663   */\n  pop\n  pop\n  jump\t// out\n    /* \"#utility.yul\":3669:3849   */\ntag_79:\n    /* \"#utility.yul\":3717:3794   */\n  0x4e487b7100000000000000000000000000000000000000000000000000000000\n    /* \"#utility.yul\":3714:3715   */\n  0x00\n    /* \"#utility.yul\":3707:3795   */\n  mstore\n    /* \"#utility.yul\":3814:3818   */\n  0x22\n    /* \"#utility.yul\":3811:3812   */\n  0x04\n    /* \"#utility.yul\":3804:3819   */\n  mstore\n    /* \"#utility.yul\":3838:3842   */\n  0x24\n    /* \"#utility.yul\":3835:3836   */\n  0x00\n    /* \"#utility.yul\":3828:3843   */\n  revert\n    /* \"#utility.yul\":3855:4035   */\ntag_65:\n    /* \"#utility.yul\":3903:3980   */\n  0x4e487b7100000000000000000000000000000000000000000000000000000000\n    /* \"#utility.yul\":3900:3901   */\n  0x00\n    /* \"#utility.yul\":3893:3981   */\n  mstore\n    /* \"#utility.yul\":4000:4004   */\n  0x41\n    /* \"#utility.yul\":3997:3998   */\n  0x04\n    /* \"#utility.yul\":3990:4005   */\n  mstore\n    /* \"#utility.yul\":4024:4028   */\n  0x24\n    /* \"#utility.yul\":4021:4022   */\n  0x00\n    /* \"#utility.yul\":4014:4029   */\n  revert\n    /* \"#utility.yul\":4041:4158   */\ntag_37:\n    /* \"#utility.yul\":4150:4151   */\n  0x00\n    /* \"#utility.yul\":4147:4148   */\n  dup1\n    /* \"#utility.yul\":4140:4152   */\n  revert\n    /* \"#utility.yul\":4164:4281   */\ntag_30:\n    /* \"#utility.yul\":4273:4274   */\n  0x00\n    /* \"#utility.yul\":4270:4271   */\n  dup1\n    /* \"#utility.yul\":4263:4275   */\n  revert\n    /* \"#utility.yul\":4287:4404   */\ntag_51:\n    /* \"#utility.yul\":4396:4397   */\n  0x00\n    /* \"#utility.yul\":4393:4394   */\n  dup1\n    /* \"#utility.yul\":4386:4398   */\n  revert\n    /* \"#utility.yul\":4410:4527   */\ntag_46:\n    /* \"#utility.yul\":4519:4520   */\n  0x00\n    /* \"#utility.yul\":4516:4517   */\n  dup1\n    /* \"#utility.yul\":4509:4521   */\n  revert\n    /* \"#utility.yul\":4533:4635   */\ntag_67:\n    /* \"#utility.yul\":4574:4580   */\n  0x00\n    /* \"#utility.yul\":4625:4627   */\n  0x1f\n    /* \"#utility.yul\":4621:4628   */\n  not\n    /* \"#utility.yul\":4616:4618   */\n  0x1f\n    /* \"#utility.yul\":4609:4614   */\n  dup4\n    /* \"#utility.yul\":4605:4619   */\n  add\n    /* \"#utility.yul\":4601:4629   */\n  and\n    /* \"#utility.yul\":4591:4629   */\n  swap1\n  pop\n    /* \"#utility.yul\":4533:4635   */\n  swap2\n  swap1\n  pop\n  jump\t// out\n    /* \"#utility.yul\":4641:4763   */\ntag_42:\n    /* \"#utility.yul\":4714:4738   */\n  tag_92\n    /* \"#utility.yul\":4732:4737   */\n  dup2\n    /* \"#utility.yul\":4714:4738   */\n  tag_68\n  jump\t// in\ntag_92:\n    /* \"#utility.yul\":4707:4712   */\n  dup2\n    /* \"#utility.yul\":4704:4739   */\n  eq\n    /* \"#utility.yul\":4694:4757   */\n  tag_93\n  jumpi\n    /* \"#utility.yul\":4753:4754   */\n  0x00\n    /* \"#utility.yul\":4750:4751   */\n  dup1\n    /* \"#utility.yul\":4743:4755   */\n  revert\n    /* \"#utility.yul\":4694:4757   */\ntag_93:\n    /* \"#utility.yul\":4641:4763   */\n  pop\n  jump\t// out\n    /* \"contracts/token.sol\":60:3869  contract karaERC20 {\r... */\ntag_9:\n  dataSize(sub_0)\n  dup1\n  dataOffset(sub_0)\n  0x00\n  codecopy\n  0x00\n  return\nstop\n\nsub_0: assembly {\n        /* \"contracts/token.sol\":60:3869  contract karaERC20 {\r... */\n      mstore(0x40, 0x80)\n      jumpi(tag_1, lt(calldatasize, 0x04))\n      shr(0xe0, calldataload(0x00))\n      dup1\n      0x70a08231\n      gt\n      tag_14\n      jumpi\n      dup1\n      0x70a08231\n      eq\n      tag_8\n      jumpi\n      dup1\n      0x7e72fb52\n      eq\n      tag_9\n      jumpi\n      dup1\n      0x7ff9b596\n      eq\n      tag_10\n      jumpi\n      dup1\n      0x95d89b41\n      eq\n      tag_11\n      jumpi\n      dup1\n      0xa9059cbb\n      eq\n      tag_12\n      jumpi\n      dup1\n      0xdd62ed3e\n      eq\n      tag_13\n      jumpi\n      jump(tag_1)\n    tag_14:\n      dup1\n      0x06fdde03\n      eq\n      tag_2\n      jumpi\n      dup1\n      0x095ea7b3\n      eq\n      tag_3\n      jumpi\n      dup1\n      0x18160ddd\n      eq\n      tag_4\n      jumpi\n      dup1\n      0x23b872dd\n      eq\n      tag_5\n      jumpi\n      dup1\n      0x313ce567\n      eq\n      tag_6\n      jumpi\n      dup1\n      0x324536eb\n      eq\n      tag_7\n      jumpi\n    tag_1:\n      0x00\n      dup1\n      revert\n        /* \"contracts/token.sol\":524:542  string public name */\n    tag_2:\n      callvalue\n      dup1\n      iszero\n      tag_15\n      jumpi\n      0x00\n      dup1\n      revert\n    tag_15:\n      pop\n      tag_16\n      tag_17\n      jump\t// in\n    tag_16:\n      mload(0x40)\n      tag_18\n      swap2\n      swap1\n      tag_19\n      jump\t// in\n    tag_18:\n      mload(0x40)\n      dup1\n      swap2\n      sub\n      swap1\n      return\n        /* \"contracts/token.sol\":2840:3120  function approve(address _spender, uint256 _value)\r... */\n    tag_3:\n      callvalue\n      dup1\n      iszero\n      tag_20\n      jumpi\n      0x00\n      dup1\n      revert\n    tag_20:\n      pop\n      tag_21\n      0x04\n      dup1\n      calldatasize\n      sub\n      dup2\n      add\n      swap1\n      tag_22\n      swap2\n      swap1\n      tag_23\n      jump\t// in\n    tag_22:\n      tag_24\n      jump\t// in\n    tag_21:\n      mload(0x40)\n      tag_25\n      swap2\n      swap1\n      tag_26\n      jump\t// in\n    tag_25:\n      mload(0x40)\n      dup1\n      swap2\n      sub\n      swap1\n      return\n        /* \"contracts/token.sol\":1504:1603  function totalSupply() public view virtual returns (uint256) {\r... */\n    tag_4:\n      callvalue\n      dup1\n      iszero\n      tag_27\n      jumpi\n      0x00\n      dup1\n      revert\n    tag_27:\n      pop\n      tag_28\n      tag_29\n      jump\t// in\n    tag_28:\n      mload(0x40)\n      tag_30\n      swap2\n      swap1\n      tag_31\n      jump\t// in\n    tag_30:\n      mload(0x40)\n      dup1\n      swap2\n      sub\n      swap1\n      return\n        /* \"contracts/token.sol\":2293:2832  function transferFrom(\r... */\n    tag_5:\n      callvalue\n      dup1\n      iszero\n      tag_32\n      jumpi\n      0x00\n      dup1\n      revert\n    tag_32:\n      pop\n      tag_33\n      0x04\n      dup1\n      calldatasize\n      sub\n      dup2\n      add\n      swap1\n      tag_34\n      swap2\n      swap1\n      tag_35\n      jump\t// in\n    tag_34:\n      tag_36\n      jump\t// in\n    tag_33:\n      mload(0x40)\n      tag_37\n      swap2\n      swap1\n      tag_26\n      jump\t// in\n    tag_37:\n      mload(0x40)\n      dup1\n      swap2\n      sub\n      swap1\n      return\n        /* \"contracts/token.sol\":408:431  uint256 public decimals */\n    tag_6:\n      callvalue\n      dup1\n      iszero\n      tag_38\n      jumpi\n      0x00\n      dup1\n      revert\n    tag_38:\n      pop\n      tag_39\n      tag_40\n      jump\t// in\n    tag_39:\n      mload(0x40)\n      tag_41\n      swap2\n      swap1\n      tag_31\n      jump\t// in\n    tag_41:\n      mload(0x40)\n      dup1\n      swap2\n      sub\n      swap1\n      return\n        /* \"contracts/token.sol\":438:465  uint256 public totalSupply_ */\n    tag_7:\n      callvalue\n      dup1\n      iszero\n      tag_42\n      jumpi\n      0x00\n      dup1\n      revert\n    tag_42:\n      pop\n      tag_43\n      tag_44\n      jump\t// in\n    tag_43:\n      mload(0x40)\n      tag_45\n      swap2\n      swap1\n      tag_31\n      jump\t// in\n    tag_45:\n      mload(0x40)\n      dup1\n      swap2\n      sub\n      swap1\n      return\n        /* \"contracts/token.sol\":1611:1824  function balanceOf(address _owner)\r... */\n    tag_8:\n      callvalue\n      dup1\n      iszero\n      tag_46\n      jumpi\n      0x00\n      dup1\n      revert\n    tag_46:\n      pop\n      tag_47\n      0x04\n      dup1\n      calldatasize\n      sub\n      dup2\n      add\n      swap1\n      tag_48\n      swap2\n      swap1\n      tag_49\n      jump\t// in\n    tag_48:\n      tag_50\n      jump\t// in\n    tag_47:\n      mload(0x40)\n      tag_51\n      swap2\n      swap1\n      tag_31\n      jump\t// in\n    tag_51:\n      mload(0x40)\n      dup1\n      swap2\n      sub\n      swap1\n      return\n        /* \"contracts/token.sol\":3355:3866  function buyToken(address _receiver)\r... */\n    tag_9:\n      tag_52\n      0x04\n      dup1\n      calldatasize\n      sub\n      dup2\n      add\n      swap1\n      tag_53\n      swap2\n      swap1\n      tag_49\n      jump\t// in\n    tag_53:\n      tag_54\n      jump\t// in\n    tag_52:\n      mload(0x40)\n      tag_55\n      swap2\n      swap1\n      tag_26\n      jump\t// in\n    tag_55:\n      mload(0x40)\n      dup1\n      swap2\n      sub\n      swap1\n      return\n        /* \"contracts/token.sol\":472:515  uint256 public constant tokenPrice = 10**15 */\n    tag_10:\n      callvalue\n      dup1\n      iszero\n      tag_56\n      jumpi\n      0x00\n      dup1\n      revert\n    tag_56:\n      pop\n      tag_57\n      tag_58\n      jump\t// in\n    tag_57:\n      mload(0x40)\n      tag_59\n      swap2\n      swap1\n      tag_31\n      jump\t// in\n    tag_59:\n      mload(0x40)\n      dup1\n      swap2\n      sub\n      swap1\n      return\n        /* \"contracts/token.sol\":549:569  string public symbol */\n    tag_11:\n      callvalue\n      dup1\n      iszero\n      tag_60\n      jumpi\n      0x00\n      dup1\n      revert\n    tag_60:\n      pop\n      tag_61\n      tag_62\n      jump\t// in\n    tag_61:\n      mload(0x40)\n      tag_63\n      swap2\n      swap1\n      tag_19\n      jump\t// in\n    tag_63:\n      mload(0x40)\n      dup1\n      swap2\n      sub\n      swap1\n      return\n        /* \"contracts/token.sol\":1909:2285  function transfer(address _to, uint256 _value)\r... */\n    tag_12:\n      callvalue\n      dup1\n      iszero\n      tag_64\n      jumpi\n      0x00\n      dup1\n      revert\n    tag_64:\n      pop\n      tag_65\n      0x04\n      dup1\n      calldatasize\n      sub\n      dup2\n      add\n      swap1\n      tag_66\n      swap2\n      swap1\n      tag_23\n      jump\t// in\n    tag_66:\n      tag_67\n      jump\t// in\n    tag_65:\n      mload(0x40)\n      tag_68\n      swap2\n      swap1\n      tag_26\n      jump\t// in\n    tag_68:\n      mload(0x40)\n      dup1\n      swap2\n      sub\n      swap1\n      return\n        /* \"contracts/token.sol\":3166:3349  function allowance(address _owner, address _spender)\r... */\n    tag_13:\n      callvalue\n      dup1\n      iszero\n      tag_69\n      jumpi\n      0x00\n      dup1\n      revert\n    tag_69:\n      pop\n      tag_70\n      0x04\n      dup1\n      calldatasize\n      sub\n      dup2\n      add\n      swap1\n      tag_71\n      swap2\n      swap1\n      tag_72\n      jump\t// in\n    tag_71:\n      tag_73\n      jump\t// in\n    tag_70:\n      mload(0x40)\n      tag_74\n      swap2\n      swap1\n      tag_31\n      jump\t// in\n    tag_74:\n      mload(0x40)\n      dup1\n      swap2\n      sub\n      swap1\n      return\n        /* \"contracts/token.sol\":524:542  string public name */\n    tag_17:\n      0x04\n      dup1\n      sload\n      tag_75\n      swap1\n      tag_76\n      jump\t// in\n    tag_75:\n      dup1\n      0x1f\n      add\n      0x20\n      dup1\n      swap2\n      div\n      mul\n      0x20\n      add\n      mload(0x40)\n      swap1\n      dup2\n      add\n      0x40\n      mstore\n      dup1\n      swap3\n      swap2\n      swap1\n      dup2\n      dup2\n      mstore\n      0x20\n      add\n      dup3\n      dup1\n      sload\n      tag_77\n      swap1\n      tag_76\n      jump\t// in\n    tag_77:\n      dup1\n      iszero\n      tag_78\n      jumpi\n      dup1\n      0x1f\n      lt\n      tag_79\n      jumpi\n      0x0100\n      dup1\n      dup4\n      sload\n      div\n      mul\n      dup4\n      mstore\n      swap2\n      0x20\n      add\n      swap2\n      jump(tag_78)\n    tag_79:\n      dup3\n      add\n      swap2\n      swap1\n      0x00\n      mstore\n      keccak256(0x00, 0x20)\n      swap1\n    tag_80:\n      dup2\n      sload\n      dup2\n      mstore\n      swap1\n      0x01\n      add\n      swap1\n      0x20\n      add\n      dup1\n      dup4\n      gt\n      tag_80\n      jumpi\n      dup3\n      swap1\n      sub\n      0x1f\n      and\n      dup3\n      add\n      swap2\n    tag_78:\n      pop\n      pop\n      pop\n      pop\n      pop\n      dup2\n      jump\t// out\n        /* \"contracts/token.sol\":2840:3120  function approve(address _spender, uint256 _value)\r... */\n    tag_24:\n        /* \"contracts/token.sol\":2974:2978  bool */\n      0x00\n        /* \"contracts/token.sol\":2946:2954  _spender */\n      dup3\n        /* \"contracts/token.sol\":1108:1109  0 */\n      0x00\n        /* \"contracts/token.sol\":1088:1110  _address != address(0) */\n      0xffffffffffffffffffffffffffffffffffffffff\n      and\n        /* \"contracts/token.sol\":1088:1096  _address */\n      dup2\n        /* \"contracts/token.sol\":1088:1110  _address != address(0) */\n      0xffffffffffffffffffffffffffffffffffffffff\n      and\n      eq\n      iszero\n        /* \"contracts/token.sol\":1080:1130  require(_address != address(0), \"Invalid address\") */\n      tag_82\n      jumpi\n      mload(0x40)\n      0x08c379a000000000000000000000000000000000000000000000000000000000\n      dup2\n      mstore\n      0x04\n      add\n      tag_83\n      swap1\n      tag_84\n      jump\t// in\n    tag_83:\n      mload(0x40)\n      dup1\n      swap2\n      sub\n      swap1\n      revert\n    tag_82:\n        /* \"contracts/token.sol\":3028:3034  _value */\n      dup3\n        /* \"contracts/token.sol\":2996:3003  allowed */\n      0x01\n        /* \"contracts/token.sol\":2996:3015  allowed[msg.sender] */\n      0x00\n        /* \"contracts/token.sol\":3004:3014  msg.sender */\n      caller\n        /* \"contracts/token.sol\":2996:3015  allowed[msg.sender] */\n      0xffffffffffffffffffffffffffffffffffffffff\n      and\n      0xffffffffffffffffffffffffffffffffffffffff\n      and\n      dup2\n      mstore\n      0x20\n      add\n      swap1\n      dup2\n      mstore\n      0x20\n      add\n      0x00\n      keccak256\n        /* \"contracts/token.sol\":2996:3025  allowed[msg.sender][_spender] */\n      0x00\n        /* \"contracts/token.sol\":3016:3024  _spender */\n      dup7\n        /* \"contracts/token.sol\":2996:3025  allowed[msg.sender][_spender] */\n      0xffffffffffffffffffffffffffffffffffffffff\n      and\n      0xffffffffffffffffffffffffffffffffffffffff\n      and\n      dup2\n      mstore\n      0x20\n      add\n      swap1\n      dup2\n      mstore\n      0x20\n      add\n      0x00\n      keccak256\n        /* \"contracts/token.sol\":2996:3034  allowed[msg.sender][_spender] = _value */\n      dup2\n      swap1\n      sstore\n      pop\n        /* \"contracts/token.sol\":3071:3079  _spender */\n      dup4\n        /* \"contracts/token.sol\":3050:3088  Approval(msg.sender, _spender, _value) */\n      0xffffffffffffffffffffffffffffffffffffffff\n      and\n        /* \"contracts/token.sol\":3059:3069  msg.sender */\n      caller\n        /* \"contracts/token.sol\":3050:3088  Approval(msg.sender, _spender, _value) */\n      0xffffffffffffffffffffffffffffffffffffffff\n      and\n      0x8c5be1e5ebec7d5bd14f71427d1e84f3dd0314c0f7b2291e5b200ac8c7c3b925\n        /* \"contracts/token.sol\":3081:3087  _value */\n      dup6\n        /* \"contracts/token.sol\":3050:3088  Approval(msg.sender, _spender, _value) */\n      mload(0x40)\n      tag_86\n      swap2\n      swap1\n      tag_31\n      jump\t// in\n    tag_86:\n      mload(0x40)\n      dup1\n      swap2\n      sub\n      swap1\n      log3\n        /* \"contracts/token.sol\":3108:3112  true */\n      0x01\n        /* \"contracts/token.sol\":3101:3112  return true */\n      swap2\n      pop\n        /* \"contracts/token.sol\":2840:3120  function approve(address _spender, uint256 _value)\r... */\n      pop\n      swap3\n      swap2\n      pop\n      pop\n      jump\t// out\n        /* \"contracts/token.sol\":1504:1603  function totalSupply() public view virtual returns (uint256) {\r... */\n    tag_29:\n        /* \"contracts/token.sol\":1556:1563  uint256 */\n      0x00\n        /* \"contracts/token.sol\":1583:1595  totalSupply_ */\n      sload(0x03)\n        /* \"contracts/token.sol\":1576:1595  return totalSupply_ */\n      swap1\n      pop\n        /* \"contracts/token.sol\":1504:1603  function totalSupply() public view virtual returns (uint256) {\r... */\n      swap1\n      jump\t// out\n        /* \"contracts/token.sol\":2293:2832  function transferFrom(\r... */\n    tag_36:\n        /* \"contracts/token.sol\":2568:2572  bool */\n      0x00\n        /* \"contracts/token.sol\":2453:2458  _from */\n      dup4\n        /* \"contracts/token.sol\":2460:2466  _value */\n      dup3\n        /* \"contracts/token.sol\":668:676  balances */\n      0x00\n        /* \"contracts/token.sol\":668:686  balances[_spender] */\n      dup1\n        /* \"contracts/token.sol\":677:685  _spender */\n      dup4\n        /* \"contracts/token.sol\":668:686  balances[_spender] */\n      0xffffffffffffffffffffffffffffffffffffffff\n      and\n      0xffffffffffffffffffffffffffffffffffffffff\n      and\n      dup2\n      mstore\n      0x20\n      add\n      swap1\n      dup2\n      mstore\n      0x20\n      add\n      0x00\n      keccak256\n      sload\n        /* \"contracts/token.sol\":658:664  _value */\n      dup2\n        /* \"contracts/token.sol\":658:686  _value <= balances[_spender] */\n      gt\n      iszero\n        /* \"contracts/token.sol\":650:720  require(_value <= balances[_spender], \"Insufficient Balance for User\") */\n      tag_89\n      jumpi\n      mload(0x40)\n      0x08c379a000000000000000000000000000000000000000000000000000000000\n      dup2\n      mstore\n      0x04\n      add\n      tag_90\n      swap1\n      tag_91\n      jump\t// in\n    tag_90:\n      mload(0x40)\n      dup1\n      swap2\n      sub\n      swap1\n      revert\n    tag_89:\n        /* \"contracts/token.sol\":2496:2501  _from */\n      dup6\n        /* \"contracts/token.sol\":2503:2513  msg.sender */\n      caller\n        /* \"contracts/token.sol\":2515:2521  _value */\n      dup6\n        /* \"contracts/token.sol\":901:908  allowed */\n      0x01\n        /* \"contracts/token.sol\":901:916  allowed[_owner] */\n      0x00\n        /* \"contracts/token.sol\":909:915  _owner */\n      dup5\n        /* \"contracts/token.sol\":901:916  allowed[_owner] */\n      0xffffffffffffffffffffffffffffffffffffffff\n      and\n      0xffffffffffffffffffffffffffffffffffffffff\n      and\n      dup2\n      mstore\n      0x20\n      add\n      swap1\n      dup2\n      mstore\n      0x20\n      add\n      0x00\n      keccak256\n        /* \"contracts/token.sol\":901:926  allowed[_owner][_spender] */\n      0x00\n        /* \"contracts/token.sol\":917:925  _spender */\n      dup4\n        /* \"contracts/token.sol\":901:926  allowed[_owner][_spender] */\n      0xffffffffffffffffffffffffffffffffffffffff\n      and\n      0xffffffffffffffffffffffffffffffffffffffff\n      and\n      dup2\n      mstore\n      0x20\n      add\n      swap1\n      dup2\n      mstore\n      0x20\n      add\n      0x00\n      keccak256\n      sload\n        /* \"contracts/token.sol\":891:897  _value */\n      dup2\n        /* \"contracts/token.sol\":891:926  _value <= allowed[_owner][_spender] */\n      gt\n      iszero\n        /* \"contracts/token.sol\":869:1001  require(\r... */\n      tag_93\n      jumpi\n      mload(0x40)\n      0x08c379a000000000000000000000000000000000000000000000000000000000\n      dup2\n      mstore\n      0x04\n      add\n      tag_94\n      swap1\n      tag_95\n      jump\t// in\n    tag_94:\n      mload(0x40)\n      dup1\n      swap2\n      sub\n      swap1\n      revert\n    tag_93:\n        /* \"contracts/token.sol\":2545:2548  _to */\n      dup8\n        /* \"contracts/token.sol\":1108:1109  0 */\n      0x00\n        /* \"contracts/token.sol\":1088:1110  _address != address(0) */\n      0xffffffffffffffffffffffffffffffffffffffff\n      and\n        /* \"contracts/token.sol\":1088:1096  _address */\n      dup2\n        /* \"contracts/token.sol\":1088:1110  _address != address(0) */\n      0xffffffffffffffffffffffffffffffffffffffff\n      and\n      eq\n      iszero\n        /* \"contracts/token.sol\":1080:1130  require(_address != address(0), \"Invalid address\") */\n      tag_97\n      jumpi\n      mload(0x40)\n      0x08c379a000000000000000000000000000000000000000000000000000000000\n      dup2\n      mstore\n      0x04\n      add\n      tag_98\n      swap1\n      tag_84\n      jump\t// in\n    tag_98:\n      mload(0x40)\n      dup1\n      swap2\n      sub\n      swap1\n      revert\n    tag_97:\n        /* \"contracts/token.sol\":2648:2654  _value */\n      dup8\n        /* \"contracts/token.sol\":2619:2626  allowed */\n      0x01\n        /* \"contracts/token.sol\":2619:2633  allowed[_from] */\n      0x00\n        /* \"contracts/token.sol\":2627:2632  _from */\n      dup13\n        /* \"contracts/token.sol\":2619:2633  allowed[_from] */\n      0xffffffffffffffffffffffffffffffffffffffff\n      and\n      0xffffffffffffffffffffffffffffffffffffffff\n      and\n      dup2\n      mstore\n      0x20\n      add\n      swap1\n      dup2\n      mstore\n      0x20\n      add\n      0x00\n      keccak256\n        /* \"contracts/token.sol\":2619:2645  allowed[_from][msg.sender] */\n      0x00\n        /* \"contracts/token.sol\":2634:2644  msg.sender */\n      caller\n        /* \"contracts/token.sol\":2619:2645  allowed[_from][msg.sender] */\n      0xffffffffffffffffffffffffffffffffffffffff\n      and\n      0xffffffffffffffffffffffffffffffffffffffff\n      and\n      dup2\n      mstore\n      0x20\n      add\n      swap1\n      dup2\n      mstore\n      0x20\n      add\n      0x00\n      keccak256\n      sload\n        /* \"contracts/token.sol\":2619:2654  allowed[_from][msg.sender] - _value */\n      tag_100\n      swap2\n      swap1\n      tag_101\n      jump\t// in\n    tag_100:\n        /* \"contracts/token.sol\":2590:2597  allowed */\n      0x01\n        /* \"contracts/token.sol\":2590:2604  allowed[_from] */\n      0x00\n        /* \"contracts/token.sol\":2598:2603  _from */\n      dup13\n        /* \"contracts/token.sol\":2590:2604  allowed[_from] */\n      0xffffffffffffffffffffffffffffffffffffffff\n      and\n      0xffffffffffffffffffffffffffffffffffffffff\n      and\n      dup2\n      mstore\n      0x20\n      add\n      swap1\n      dup2\n      mstore\n      0x20\n      add\n      0x00\n      keccak256\n        /* \"contracts/token.sol\":2590:2616  allowed[_from][msg.sender] */\n      0x00\n        /* \"contracts/token.sol\":2605:2615  msg.sender */\n      caller\n        /* \"contracts/token.sol\":2590:2616  allowed[_from][msg.sender] */\n      0xffffffffffffffffffffffffffffffffffffffff\n      and\n      0xffffffffffffffffffffffffffffffffffffffff\n      and\n      dup2\n      mstore\n      0x20\n      add\n      swap1\n      dup2\n      mstore\n      0x20\n      add\n      0x00\n      keccak256\n        /* \"contracts/token.sol\":2590:2654  allowed[_from][msg.sender] = allowed[_from][msg.sender] - _value */\n      dup2\n      swap1\n      sstore\n      pop\n        /* \"contracts/token.sol\":2701:2707  _value */\n      dup8\n        /* \"contracts/token.sol\":2683:2691  balances */\n      0x00\n        /* \"contracts/token.sol\":2683:2698  balances[_from] */\n      dup1\n        /* \"contracts/token.sol\":2692:2697  _from */\n      dup13\n        /* \"contracts/token.sol\":2683:2698  balances[_from] */\n      0xffffffffffffffffffffffffffffffffffffffff\n      and\n      0xffffffffffffffffffffffffffffffffffffffff\n      and\n      dup2\n      mstore\n      0x20\n      add\n      swap1\n      dup2\n      mstore\n      0x20\n      add\n      0x00\n      keccak256\n      sload\n        /* \"contracts/token.sol\":2683:2707  balances[_from] - _value */\n      tag_102\n      swap2\n      swap1\n      tag_101\n      jump\t// in\n    tag_102:\n        /* \"contracts/token.sol\":2665:2673  balances */\n      0x00\n        /* \"contracts/token.sol\":2665:2680  balances[_from] */\n      dup1\n        /* \"contracts/token.sol\":2674:2679  _from */\n      dup13\n        /* \"contracts/token.sol\":2665:2680  balances[_from] */\n      0xffffffffffffffffffffffffffffffffffffffff\n      and\n      0xffffffffffffffffffffffffffffffffffffffff\n      and\n      dup2\n      mstore\n      0x20\n      add\n      swap1\n      dup2\n      mstore\n      0x20\n      add\n      0x00\n      keccak256\n        /* \"contracts/token.sol\":2665:2707  balances[_from] = balances[_from] - _value */\n      dup2\n      swap1\n      sstore\n      pop\n        /* \"contracts/token.sol\":2750:2756  _value */\n      dup8\n        /* \"contracts/token.sol\":2734:2742  balances */\n      0x00\n        /* \"contracts/token.sol\":2734:2747  balances[_to] */\n      dup1\n        /* \"contracts/token.sol\":2743:2746  _to */\n      dup12\n        /* \"contracts/token.sol\":2734:2747  balances[_to] */\n      0xffffffffffffffffffffffffffffffffffffffff\n      and\n      0xffffffffffffffffffffffffffffffffffffffff\n      and\n      dup2\n      mstore\n      0x20\n      add\n      swap1\n      dup2\n      mstore\n      0x20\n      add\n      0x00\n      keccak256\n      sload\n        /* \"contracts/token.sol\":2734:2756  balances[_to] + _value */\n      tag_103\n      swap2\n      swap1\n      tag_104\n      jump\t// in\n    tag_103:\n        /* \"contracts/token.sol\":2718:2726  balances */\n      0x00\n        /* \"contracts/token.sol\":2718:2731  balances[_to] */\n      dup1\n        /* \"contracts/token.sol\":2727:2730  _to */\n      dup12\n        /* \"contracts/token.sol\":2718:2731  balances[_to] */\n      0xffffffffffffffffffffffffffffffffffffffff\n      and\n      0xffffffffffffffffffffffffffffffffffffffff\n      and\n      dup2\n      mstore\n      0x20\n      add\n      swap1\n      dup2\n      mstore\n      0x20\n      add\n      0x00\n      keccak256\n        /* \"contracts/token.sol\":2718:2756  balances[_to] = balances[_to] + _value */\n      dup2\n      swap1\n      sstore\n      pop\n        /* \"contracts/token.sol\":2790:2793  _to */\n      dup9\n        /* \"contracts/token.sol\":2774:2802  Transfer(_from, _to, _value) */\n      0xffffffffffffffffffffffffffffffffffffffff\n      and\n        /* \"contracts/token.sol\":2783:2788  _from */\n      dup11\n        /* \"contracts/token.sol\":2774:2802  Transfer(_from, _to, _value) */\n      0xffffffffffffffffffffffffffffffffffffffff\n      and\n      0xddf252ad1be2c89b69c2b068fc378daa952ba7f163c4a11628f55a4df523b3ef\n        /* \"contracts/token.sol\":2795:2801  _value */\n      dup11\n        /* \"contracts/token.sol\":2774:2802  Transfer(_from, _to, _value) */\n      mload(0x40)\n      tag_105\n      swap2\n      swap1\n      tag_31\n      jump\t// in\n    tag_105:\n      mload(0x40)\n      dup1\n      swap2\n      sub\n      swap1\n      log3\n        /* \"contracts/token.sol\":2820:2824  true */\n      0x01\n        /* \"contracts/token.sol\":2813:2824  return true */\n      swap7\n      pop\n        /* \"contracts/token.sol\":1012:1013  _ */\n      pop\n        /* \"contracts/token.sol\":731:732  _ */\n      pop\n      pop\n      pop\n        /* \"contracts/token.sol\":2293:2832  function transferFrom(\r... */\n      pop\n      pop\n      swap4\n      swap3\n      pop\n      pop\n      pop\n      jump\t// out\n        /* \"contracts/token.sol\":408:431  uint256 public decimals */\n    tag_40:\n      sload(0x02)\n      dup2\n      jump\t// out\n        /* \"contracts/token.sol\":438:465  uint256 public totalSupply_ */\n    tag_44:\n      sload(0x03)\n      dup2\n      jump\t// out\n        /* \"contracts/token.sol\":1611:1824  function balanceOf(address _owner)\r... */\n    tag_50:\n        /* \"contracts/token.sol\":1711:1726  uint256 balance */\n      0x00\n        /* \"contracts/token.sol\":1751:1759  balances */\n      dup1\n        /* \"contracts/token.sol\":1751:1767  balances[_owner] */\n      0x00\n        /* \"contracts/token.sol\":1760:1766  _owner */\n      dup4\n        /* \"contracts/token.sol\":1751:1767  balances[_owner] */\n      0xffffffffffffffffffffffffffffffffffffffff\n      and\n      0xffffffffffffffffffffffffffffffffffffffff\n      and\n      dup2\n      mstore\n      0x20\n      add\n      swap1\n      dup2\n      mstore\n      0x20\n      add\n      0x00\n      keccak256\n      sload\n        /* \"contracts/token.sol\":1744:1767  return balances[_owner] */\n      swap1\n      pop\n        /* \"contracts/token.sol\":1611:1824  function balanceOf(address _owner)\r... */\n      swap2\n      swap1\n      pop\n      jump\t// out\n        /* \"contracts/token.sol\":3355:3866  function buyToken(address _receiver)\r... */\n    tag_54:\n        /* \"contracts/token.sol\":3476:3480  bool */\n      0x00\n        /* \"contracts/token.sol\":3447:3456  _receiver */\n      dup2\n        /* \"contracts/token.sol\":1108:1109  0 */\n      0x00\n        /* \"contracts/token.sol\":1088:1110  _address != address(0) */\n      0xffffffffffffffffffffffffffffffffffffffff\n      and\n        /* \"contracts/token.sol\":1088:1096  _address */\n      dup2\n        /* \"contracts/token.sol\":1088:1110  _address != address(0) */\n      0xffffffffffffffffffffffffffffffffffffffff\n      and\n      eq\n      iszero\n        /* \"contracts/token.sol\":1080:1130  require(_address != address(0), \"Invalid address\") */\n      tag_108\n      jumpi\n      mload(0x40)\n      0x08c379a000000000000000000000000000000000000000000000000000000000\n      dup2\n      mstore\n      0x04\n      add\n      tag_109\n      swap1\n      tag_84\n      jump\t// in\n    tag_109:\n      mload(0x40)\n      dup1\n      swap2\n      sub\n      swap1\n      revert\n    tag_108:\n        /* \"contracts/token.sol\":509:515  10**15 */\n      0x038d7ea4c68000\n        /* \"contracts/token.sol\":3506:3515  msg.value */\n      callvalue\n        /* \"contracts/token.sol\":3506:3529  msg.value >= tokenPrice */\n      lt\n      iszero\n        /* \"contracts/token.sol\":3498:3566  require(msg.value >= tokenPrice, \"Need to send exact amount of wei\") */\n      tag_111\n      jumpi\n      mload(0x40)\n      0x08c379a000000000000000000000000000000000000000000000000000000000\n      dup2\n      mstore\n      0x04\n      add\n      tag_112\n      swap1\n      tag_113\n      jump\t// in\n    tag_112:\n      mload(0x40)\n      dup1\n      swap2\n      sub\n      swap1\n      revert\n    tag_111:\n        /* \"contracts/token.sol\":3579:3593  uint256 amount */\n      0x00\n        /* \"contracts/token.sol\":509:515  10**15 */\n      0x038d7ea4c68000\n        /* \"contracts/token.sol\":3596:3605  msg.value */\n      callvalue\n        /* \"contracts/token.sol\":3596:3618  msg.value / tokenPrice */\n      tag_114\n      swap2\n      swap1\n      tag_115\n      jump\t// in\n    tag_114:\n        /* \"contracts/token.sol\":3579:3618  uint256 amount = msg.value / tokenPrice */\n      swap1\n      pop\n        /* \"contracts/token.sol\":3675:3681  amount */\n      dup1\n        /* \"contracts/token.sol\":3652:3660  balances */\n      0x00\n        /* \"contracts/token.sol\":3652:3672  balances[msg.sender] */\n      dup1\n        /* \"contracts/token.sol\":3661:3671  msg.sender */\n      caller\n        /* \"contracts/token.sol\":3652:3672  balances[msg.sender] */\n      0xffffffffffffffffffffffffffffffffffffffff\n      and\n      0xffffffffffffffffffffffffffffffffffffffff\n      and\n      dup2\n      mstore\n      0x20\n      add\n      swap1\n      dup2\n      mstore\n      0x20\n      add\n      0x00\n      keccak256\n      sload\n        /* \"contracts/token.sol\":3652:3681  balances[msg.sender] - amount */\n      tag_116\n      swap2\n      swap1\n      tag_101\n      jump\t// in\n    tag_116:\n        /* \"contracts/token.sol\":3629:3637  balances */\n      0x00\n        /* \"contracts/token.sol\":3629:3649  balances[msg.sender] */\n      dup1\n        /* \"contracts/token.sol\":3638:3648  msg.sender */\n      caller\n        /* \"contracts/token.sol\":3629:3649  balances[msg.sender] */\n      0xffffffffffffffffffffffffffffffffffffffff\n      and\n      0xffffffffffffffffffffffffffffffffffffffff\n      and\n      dup2\n      mstore\n      0x20\n      add\n      swap1\n      dup2\n      mstore\n      0x20\n      add\n      0x00\n      keccak256\n        /* \"contracts/token.sol\":3629:3681  balances[msg.sender] = balances[msg.sender] - amount */\n      dup2\n      swap1\n      sstore\n      pop\n        /* \"contracts/token.sol\":3736:3742  amount */\n      dup1\n        /* \"contracts/token.sol\":3714:3722  balances */\n      0x00\n        /* \"contracts/token.sol\":3714:3733  balances[_receiver] */\n      dup1\n        /* \"contracts/token.sol\":3723:3732  _receiver */\n      dup7\n        /* \"contracts/token.sol\":3714:3733  balances[_receiver] */\n      0xffffffffffffffffffffffffffffffffffffffff\n      and\n      0xffffffffffffffffffffffffffffffffffffffff\n      and\n      dup2\n      mstore\n      0x20\n      add\n      swap1\n      dup2\n      mstore\n      0x20\n      add\n      0x00\n      keccak256\n      sload\n        /* \"contracts/token.sol\":3714:3742  balances[_receiver] + amount */\n      tag_117\n      swap2\n      swap1\n      tag_104\n      jump\t// in\n    tag_117:\n        /* \"contracts/token.sol\":3692:3700  balances */\n      0x00\n        /* \"contracts/token.sol\":3692:3711  balances[_receiver] */\n      dup1\n        /* \"contracts/token.sol\":3701:3710  _receiver */\n      dup7\n        /* \"contracts/token.sol\":3692:3711  balances[_receiver] */\n      0xffffffffffffffffffffffffffffffffffffffff\n      and\n      0xffffffffffffffffffffffffffffffffffffffff\n      and\n      dup2\n      mstore\n      0x20\n      add\n      swap1\n      dup2\n      mstore\n      0x20\n      add\n      0x00\n      keccak256\n        /* \"contracts/token.sol\":3692:3742  balances[_receiver] = balances[_receiver] + amount */\n      dup2\n      swap1\n      sstore\n      pop\n        /* \"contracts/token.sol\":3771:3777  amount */\n      dup1\n        /* \"contracts/token.sol\":3755:3767  totalSupply_ */\n      0x03\n      0x00\n        /* \"contracts/token.sol\":3755:3777  totalSupply_ += amount */\n      dup3\n      dup3\n      sload\n      tag_118\n      swap2\n      swap1\n      tag_104\n      jump\t// in\n    tag_118:\n      swap3\n      pop\n      pop\n      dup2\n      swap1\n      sstore\n      pop\n        /* \"contracts/token.sol\":3816:3825  _receiver */\n      dup4\n        /* \"contracts/token.sol\":3795:3834  Transfer(msg.sender, _receiver, amount) */\n      0xffffffffffffffffffffffffffffffffffffffff\n      and\n        /* \"contracts/token.sol\":3804:3814  msg.sender */\n      caller\n        /* \"contracts/token.sol\":3795:3834  Transfer(msg.sender, _receiver, amount) */\n      0xffffffffffffffffffffffffffffffffffffffff\n      and\n      0xddf252ad1be2c89b69c2b068fc378daa952ba7f163c4a11628f55a4df523b3ef\n        /* \"contracts/token.sol\":3827:3833  amount */\n      dup4\n        /* \"contracts/token.sol\":3795:3834  Transfer(msg.sender, _receiver, amount) */\n      mload(0x40)\n      tag_119\n      swap2\n      swap1\n      tag_31\n      jump\t// in\n    tag_119:\n      mload(0x40)\n      dup1\n      swap2\n      sub\n      swap1\n      log3\n        /* \"contracts/token.sol\":3854:3858  true */\n      0x01\n        /* \"contracts/token.sol\":3847:3858  return true */\n      swap3\n      pop\n      pop\n        /* \"contracts/token.sol\":3355:3866  function buyToken(address _receiver)\r... */\n      pop\n      swap2\n      swap1\n      pop\n      jump\t// out\n        /* \"contracts/token.sol\":472:515  uint256 public constant tokenPrice = 10**15 */\n    tag_58:\n        /* \"contracts/token.sol\":509:515  10**15 */\n      0x038d7ea4c68000\n        /* \"contracts/token.sol\":472:515  uint256 public constant tokenPrice = 10**15 */\n      dup2\n      jump\t// out\n        /* \"contracts/token.sol\":549:569  string public symbol */\n    tag_62:\n      0x05\n      dup1\n      sload\n      tag_120\n      swap1\n      tag_76\n      jump\t// in\n    tag_120:\n      dup1\n      0x1f\n      add\n      0x20\n      dup1\n      swap2\n      div\n      mul\n      0x20\n      add\n      mload(0x40)\n      swap1\n      dup2\n      add\n      0x40\n      mstore\n      dup1\n      swap3\n      swap2\n      swap1\n      dup2\n      dup2\n      mstore\n      0x20\n      add\n      dup3\n      dup1\n      sload\n      tag_121\n      swap1\n      tag_76\n      jump\t// in\n    tag_121:\n      dup1\n      iszero\n      tag_122\n      jumpi\n      dup1\n      0x1f\n      lt\n      tag_123\n      jumpi\n      0x0100\n      dup1\n      dup4\n      sload\n      div\n      mul\n      dup4\n      mstore\n      swap2\n      0x20\n      add\n      swap2\n      jump(tag_122)\n    tag_123:\n      dup3\n      add\n      swap2\n      swap1\n      0x00\n      mstore\n      keccak256(0x00, 0x20)\n      swap1\n    tag_124:\n      dup2\n      sload\n      dup2\n      mstore\n      swap1\n      0x01\n      add\n      swap1\n      0x20\n      add\n      dup1\n      dup4\n      gt\n      tag_124\n      jumpi\n      dup3\n      swap1\n      sub\n      0x1f\n      and\n      dup3\n      add\n      swap2\n    tag_122:\n      pop\n      pop\n      pop\n      pop\n      pop\n      dup2\n      jump\t// out\n        /* \"contracts/token.sol\":1909:2285  function transfer(address _to, uint256 _value)\r... */\n    tag_67:\n        /* \"contracts/token.sol\":2081:2085  bool */\n      0x00\n        /* \"contracts/token.sol\":2016:2026  msg.sender */\n      caller\n        /* \"contracts/token.sol\":2028:2034  _value */\n      dup3\n        /* \"contracts/token.sol\":668:676  balances */\n      0x00\n        /* \"contracts/token.sol\":668:686  balances[_spender] */\n      dup1\n        /* \"contracts/token.sol\":677:685  _spender */\n      dup4\n        /* \"contracts/token.sol\":668:686  balances[_spender] */\n      0xffffffffffffffffffffffffffffffffffffffff\n      and\n      0xffffffffffffffffffffffffffffffffffffffff\n      and\n      dup2\n      mstore\n      0x20\n      add\n      swap1\n      dup2\n      mstore\n      0x20\n      add\n      0x00\n      keccak256\n      sload\n        /* \"contracts/token.sol\":658:664  _value */\n      dup2\n        /* \"contracts/token.sol\":658:686  _value <= balances[_spender] */\n      gt\n      iszero\n        /* \"contracts/token.sol\":650:720  require(_value <= balances[_spender], \"Insufficient Balance for User\") */\n      tag_126\n      jumpi\n      mload(0x40)\n      0x08c379a000000000000000000000000000000000000000000000000000000000\n      dup2\n      mstore\n      0x04\n      add\n      tag_127\n      swap1\n      tag_91\n      jump\t// in\n    tag_127:\n      mload(0x40)\n      dup1\n      swap2\n      sub\n      swap1\n      revert\n    tag_126:\n        /* \"contracts/token.sol\":2058:2061  _to */\n      dup5\n        /* \"contracts/token.sol\":1108:1109  0 */\n      0x00\n        /* \"contracts/token.sol\":1088:1110  _address != address(0) */\n      0xffffffffffffffffffffffffffffffffffffffff\n      and\n        /* \"contracts/token.sol\":1088:1096  _address */\n      dup2\n        /* \"contracts/token.sol\":1088:1110  _address != address(0) */\n      0xffffffffffffffffffffffffffffffffffffffff\n      and\n      eq\n      iszero\n        /* \"contracts/token.sol\":1080:1130  require(_address != address(0), \"Invalid address\") */\n      tag_129\n      jumpi\n      mload(0x40)\n      0x08c379a000000000000000000000000000000000000000000000000000000000\n      dup2\n      mstore\n      0x04\n      add\n      tag_130\n      swap1\n      tag_84\n      jump\t// in\n    tag_130:\n      mload(0x40)\n      dup1\n      swap2\n      sub\n      swap1\n      revert\n    tag_129:\n        /* \"contracts/token.sol\":2149:2155  _value */\n      dup5\n        /* \"contracts/token.sol\":2126:2134  balances */\n      0x00\n        /* \"contracts/token.sol\":2126:2146  balances[msg.sender] */\n      dup1\n        /* \"contracts/token.sol\":2135:2145  msg.sender */\n      caller\n        /* \"contracts/token.sol\":2126:2146  balances[msg.sender] */\n      0xffffffffffffffffffffffffffffffffffffffff\n      and\n      0xffffffffffffffffffffffffffffffffffffffff\n      and\n      dup2\n      mstore\n      0x20\n      add\n      swap1\n      dup2\n      mstore\n      0x20\n      add\n      0x00\n      keccak256\n      sload\n        /* \"contracts/token.sol\":2126:2155  balances[msg.sender] - _value */\n      tag_132\n      swap2\n      swap1\n      tag_101\n      jump\t// in\n    tag_132:\n        /* \"contracts/token.sol\":2103:2111  balances */\n      0x00\n        /* \"contracts/token.sol\":2103:2123  balances[msg.sender] */\n      dup1\n        /* \"contracts/token.sol\":2112:2122  msg.sender */\n      caller\n        /* \"contracts/token.sol\":2103:2123  balances[msg.sender] */\n      0xffffffffffffffffffffffffffffffffffffffff\n      and\n      0xffffffffffffffffffffffffffffffffffffffff\n      and\n      dup2\n      mstore\n      0x20\n      add\n      swap1\n      dup2\n      mstore\n      0x20\n      add\n      0x00\n      keccak256\n        /* \"contracts/token.sol\":2103:2155  balances[msg.sender] = balances[msg.sender] - _value */\n      dup2\n      swap1\n      sstore\n      pop\n        /* \"contracts/token.sol\":2198:2204  _value */\n      dup5\n        /* \"contracts/token.sol\":2182:2190  balances */\n      0x00\n        /* \"contracts/token.sol\":2182:2195  balances[_to] */\n      dup1\n        /* \"contracts/token.sol\":2191:2194  _to */\n      dup9\n        /* \"contracts/token.sol\":2182:2195  balances[_to] */\n      0xffffffffffffffffffffffffffffffffffffffff\n      and\n      0xffffffffffffffffffffffffffffffffffffffff\n      and\n      dup2\n      mstore\n      0x20\n      add\n      swap1\n      dup2\n      mstore\n      0x20\n      add\n      0x00\n      keccak256\n      sload\n        /* \"contracts/token.sol\":2182:2204  balances[_to] + _value */\n      tag_133\n      swap2\n      swap1\n      tag_104\n      jump\t// in\n    tag_133:\n        /* \"contracts/token.sol\":2166:2174  balances */\n      0x00\n        /* \"contracts/token.sol\":2166:2179  balances[_to] */\n      dup1\n        /* \"contracts/token.sol\":2175:2178  _to */\n      dup9\n        /* \"contracts/token.sol\":2166:2179  balances[_to] */\n      0xffffffffffffffffffffffffffffffffffffffff\n      and\n      0xffffffffffffffffffffffffffffffffffffffff\n      and\n      dup2\n      mstore\n      0x20\n      add\n      swap1\n      dup2\n      mstore\n      0x20\n      add\n      0x00\n      keccak256\n        /* \"contracts/token.sol\":2166:2204  balances[_to] = balances[_to] + _value */\n      dup2\n      swap1\n      sstore\n      pop\n        /* \"contracts/token.sol\":2241:2244  _to */\n      dup6\n        /* \"contracts/token.sol\":2220:2253  Transfer(msg.sender, _to, _value) */\n      0xffffffffffffffffffffffffffffffffffffffff\n      and\n        /* \"contracts/token.sol\":2229:2239  msg.sender */\n      caller\n        /* \"contracts/token.sol\":2220:2253  Transfer(msg.sender, _to, _value) */\n      0xffffffffffffffffffffffffffffffffffffffff\n      and\n      0xddf252ad1be2c89b69c2b068fc378daa952ba7f163c4a11628f55a4df523b3ef\n        /* \"contracts/token.sol\":2246:2252  _value */\n      dup8\n        /* \"contracts/token.sol\":2220:2253  Transfer(msg.sender, _to, _value) */\n      mload(0x40)\n      tag_134\n      swap2\n      swap1\n      tag_31\n      jump\t// in\n    tag_134:\n      mload(0x40)\n      dup1\n      swap2\n      sub\n      swap1\n      log3\n        /* \"contracts/token.sol\":2273:2277  true */\n      0x01\n        /* \"contracts/token.sol\":2266:2277  return true */\n      swap4\n      pop\n        /* \"contracts/token.sol\":731:732  _ */\n      pop\n        /* \"contracts/token.sol\":1909:2285  function transfer(address _to, uint256 _value)\r... */\n      pop\n      pop\n      swap3\n      swap2\n      pop\n      pop\n      jump\t// out\n        /* \"contracts/token.sol\":3166:3349  function allowance(address _owner, address _spender)\r... */\n    tag_73:\n        /* \"contracts/token.sol\":3284:3291  uint256 */\n      0x00\n        /* \"contracts/token.sol\":3316:3323  allowed */\n      0x01\n        /* \"contracts/token.sol\":3316:3331  allowed[_owner] */\n      0x00\n        /* \"contracts/token.sol\":3324:3330  _owner */\n      dup5\n        /* \"contracts/token.sol\":3316:3331  allowed[_owner] */\n      0xffffffffffffffffffffffffffffffffffffffff\n      and\n      0xffffffffffffffffffffffffffffffffffffffff\n      and\n      dup2\n      mstore\n      0x20\n      add\n      swap1\n      dup2\n      mstore\n      0x20\n      add\n      0x00\n      keccak256\n        /* \"contracts/token.sol\":3316:3341  allowed[_owner][_spender] */\n      0x00\n        /* \"contracts/token.sol\":3332:3340  _spender */\n      dup4\n        /* \"contracts/token.sol\":3316:3341  allowed[_owner][_spender] */\n      0xffffffffffffffffffffffffffffffffffffffff\n      and\n      0xffffffffffffffffffffffffffffffffffffffff\n      and\n      dup2\n      mstore\n      0x20\n      add\n      swap1\n      dup2\n      mstore\n      0x20\n      add\n      0x00\n      keccak256\n      sload\n        /* \"contracts/token.sol\":3309:3341  return allowed[_owner][_spender] */\n      swap1\n      pop\n        /* \"contracts/token.sol\":3166:3349  function allowance(address _owner, address _spender)\r... */\n      swap3\n      swap2\n      pop\n      pop\n      jump\t// out\n        /* \"#utility.yul\":7:146   */\n    tag_137:\n        /* \"#utility.yul\":53:58   */\n      0x00\n        /* \"#utility.yul\":91:97   */\n      dup2\n        /* \"#utility.yul\":78:98   */\n      calldataload\n        /* \"#utility.yul\":69:98   */\n      swap1\n      pop\n        /* \"#utility.yul\":107:140   */\n      tag_139\n        /* \"#utility.yul\":134:139   */\n      dup2\n        /* \"#utility.yul\":107:140   */\n      tag_140\n      jump\t// in\n    tag_139:\n        /* \"#utility.yul\":7:146   */\n      swap3\n      swap2\n      pop\n      pop\n      jump\t// out\n        /* \"#utility.yul\":152:291   */\n    tag_141:\n        /* \"#utility.yul\":198:203   */\n      0x00\n        /* \"#utility.yul\":236:242   */\n      dup2\n        /* \"#utility.yul\":223:243   */\n      calldataload\n        /* \"#utility.yul\":214:243   */\n      swap1\n      pop\n        /* \"#utility.yul\":252:285   */\n      tag_143\n        /* \"#utility.yul\":279:284   */\n      dup2\n        /* \"#utility.yul\":252:285   */\n      tag_144\n      jump\t// in\n    tag_143:\n        /* \"#utility.yul\":152:291   */\n      swap3\n      swap2\n      pop\n      pop\n      jump\t// out\n        /* \"#utility.yul\":297:626   */\n    tag_49:\n        /* \"#utility.yul\":356:362   */\n      0x00\n        /* \"#utility.yul\":405:407   */\n      0x20\n        /* \"#utility.yul\":393:402   */\n      dup3\n        /* \"#utility.yul\":384:391   */\n      dup5\n        /* \"#utility.yul\":380:403   */\n      sub\n        /* \"#utility.yul\":376:408   */\n      slt\n        /* \"#utility.yul\":373:492   */\n      iszero\n      tag_146\n      jumpi\n        /* \"#utility.yul\":411:490   */\n      tag_147\n      tag_148\n      jump\t// in\n    tag_147:\n        /* \"#utility.yul\":373:492   */\n    tag_146:\n        /* \"#utility.yul\":531:532   */\n      0x00\n        /* \"#utility.yul\":556:609   */\n      tag_149\n        /* \"#utility.yul\":601:608   */\n      dup5\n        /* \"#utility.yul\":592:598   */\n      dup3\n        /* \"#utility.yul\":581:590   */\n      dup6\n        /* \"#utility.yul\":577:599   */\n      add\n        /* \"#utility.yul\":556:609   */\n      tag_137\n      jump\t// in\n    tag_149:\n        /* \"#utility.yul\":546:609   */\n      swap2\n      pop\n        /* \"#utility.yul\":502:619   */\n      pop\n        /* \"#utility.yul\":297:626   */\n      swap3\n      swap2\n      pop\n      pop\n      jump\t// out\n        /* \"#utility.yul\":632:1106   */\n    tag_72:\n        /* \"#utility.yul\":700:706   */\n      0x00\n        /* \"#utility.yul\":708:714   */\n      dup1\n        /* \"#utility.yul\":757:759   */\n      0x40\n        /* \"#utility.yul\":745:754   */\n      dup4\n        /* \"#utility.yul\":736:743   */\n      dup6\n        /* \"#utility.yul\":732:755   */\n      sub\n        /* \"#utility.yul\":728:760   */\n      slt\n        /* \"#utility.yul\":725:844   */\n      iszero\n      tag_151\n      jumpi\n        /* \"#utility.yul\":763:842   */\n      tag_152\n      tag_148\n      jump\t// in\n    tag_152:\n        /* \"#utility.yul\":725:844   */\n    tag_151:\n        /* \"#utility.yul\":883:884   */\n      0x00\n        /* \"#utility.yul\":908:961   */\n      tag_153\n        /* \"#utility.yul\":953:960   */\n      dup6\n        /* \"#utility.yul\":944:950   */\n      dup3\n        /* \"#utility.yul\":933:942   */\n      dup7\n        /* \"#utility.yul\":929:951   */\n      add\n        /* \"#utility.yul\":908:961   */\n      tag_137\n      jump\t// in\n    tag_153:\n        /* \"#utility.yul\":898:961   */\n      swap3\n      pop\n        /* \"#utility.yul\":854:971   */\n      pop\n        /* \"#utility.yul\":1010:1012   */\n      0x20\n        /* \"#utility.yul\":1036:1089   */\n      tag_154\n        /* \"#utility.yul\":1081:1088   */\n      dup6\n        /* \"#utility.yul\":1072:1078   */\n      dup3\n        /* \"#utility.yul\":1061:1070   */\n      dup7\n        /* \"#utility.yul\":1057:1079   */\n      add\n        /* \"#utility.yul\":1036:1089   */\n      tag_137\n      jump\t// in\n    tag_154:\n        /* \"#utility.yul\":1026:1089   */\n      swap2\n      pop\n        /* \"#utility.yul\":981:1099   */\n      pop\n        /* \"#utility.yul\":632:1106   */\n      swap3\n      pop\n      swap3\n      swap1\n      pop\n      jump\t// out\n        /* \"#utility.yul\":1112:1731   */\n    tag_35:\n        /* \"#utility.yul\":1189:1195   */\n      0x00\n        /* \"#utility.yul\":1197:1203   */\n      dup1\n        /* \"#utility.yul\":1205:1211   */\n      0x00\n        /* \"#utility.yul\":1254:1256   */\n      0x60\n        /* \"#utility.yul\":1242:1251   */\n      dup5\n        /* \"#utility.yul\":1233:1240   */\n      dup7\n        /* \"#utility.yul\":1229:1252   */\n      sub\n        /* \"#utility.yul\":1225:1257   */\n      slt\n        /* \"#utility.yul\":1222:1341   */\n      iszero\n      tag_156\n      jumpi\n        /* \"#utility.yul\":1260:1339   */\n      tag_157\n      tag_148\n      jump\t// in\n    tag_157:\n        /* \"#utility.yul\":1222:1341   */\n    tag_156:\n        /* \"#utility.yul\":1380:1381   */\n      0x00\n        /* \"#utility.yul\":1405:1458   */\n      tag_158\n        /* \"#utility.yul\":1450:1457   */\n      dup7\n        /* \"#utility.yul\":1441:1447   */\n      dup3\n        /* \"#utility.yul\":1430:1439   */\n      dup8\n        /* \"#utility.yul\":1426:1448   */\n      add\n        /* \"#utility.yul\":1405:1458   */\n      tag_137\n      jump\t// in\n    tag_158:\n        /* \"#utility.yul\":1395:1458   */\n      swap4\n      pop\n        /* \"#utility.yul\":1351:1468   */\n      pop\n        /* \"#utility.yul\":1507:1509   */\n      0x20\n        /* \"#utility.yul\":1533:1586   */\n      tag_159\n        /* \"#utility.yul\":1578:1585   */\n      dup7\n        /* \"#utility.yul\":1569:1575   */\n      dup3\n        /* \"#utility.yul\":1558:1567   */\n      dup8\n        /* \"#utility.yul\":1554:1576   */\n      add\n        /* \"#utility.yul\":1533:1586   */\n      tag_137\n      jump\t// in\n    tag_159:\n        /* \"#utility.yul\":1523:1586   */\n      swap3\n      pop\n        /* \"#utility.yul\":1478:1596   */\n      pop\n        /* \"#utility.yul\":1635:1637   */\n      0x40\n        /* \"#utility.yul\":1661:1714   */\n      tag_160\n        /* \"#utility.yul\":1706:1713   */\n      dup7\n        /* \"#utility.yul\":1697:1703   */\n      dup3\n        /* \"#utility.yul\":1686:1695   */\n      dup8\n        /* \"#utility.yul\":1682:1704   */\n      add\n        /* \"#utility.yul\":1661:1714   */\n      tag_141\n      jump\t// in\n    tag_160:\n        /* \"#utility.yul\":1651:1714   */\n      swap2\n      pop\n        /* \"#utility.yul\":1606:1724   */\n      pop\n        /* \"#utility.yul\":1112:1731   */\n      swap3\n      pop\n      swap3\n      pop\n      swap3\n      jump\t// out\n        /* \"#utility.yul\":1737:2211   */\n    tag_23:\n        /* \"#utility.yul\":1805:1811   */\n      0x00\n        /* \"#utility.yul\":1813:1819   */\n      dup1\n        /* \"#utility.yul\":1862:1864   */\n      0x40\n        /* \"#utility.yul\":1850:1859   */\n      dup4\n        /* \"#utility.yul\":1841:1848   */\n      dup6\n        /* \"#utility.yul\":1837:1860   */\n      sub\n        /* \"#utility.yul\":1833:1865   */\n      slt\n        /* \"#utility.yul\":1830:1949   */\n      iszero\n      tag_162\n      jumpi\n        /* \"#utility.yul\":1868:1947   */\n      tag_163\n      tag_148\n      jump\t// in\n    tag_163:\n        /* \"#utility.yul\":1830:1949   */\n    tag_162:\n        /* \"#utility.yul\":1988:1989   */\n      0x00\n        /* \"#utility.yul\":2013:2066   */\n      tag_164\n        /* \"#utility.yul\":2058:2065   */\n      dup6\n        /* \"#utility.yul\":2049:2055   */\n      dup3\n        /* \"#utility.yul\":2038:2047   */\n      dup7\n        /* \"#utility.yul\":2034:2056   */\n      add\n        /* \"#utility.yul\":2013:2066   */\n      tag_137\n      jump\t// in\n    tag_164:\n        /* \"#utility.yul\":2003:2066   */\n      swap3\n      pop\n        /* \"#utility.yul\":1959:2076   */\n      pop\n        /* \"#utility.yul\":2115:2117   */\n      0x20\n        /* \"#utility.yul\":2141:2194   */\n      tag_165\n        /* \"#utility.yul\":2186:2193   */\n      dup6\n        /* \"#utility.yul\":2177:2183   */\n      dup3\n        /* \"#utility.yul\":2166:2175   */\n      dup7\n        /* \"#utility.yul\":2162:2184   */\n      add\n        /* \"#utility.yul\":2141:2194   */\n      tag_141\n      jump\t// in\n    tag_165:\n        /* \"#utility.yul\":2131:2194   */\n      swap2\n      pop\n        /* \"#utility.yul\":2086:2204   */\n      pop\n        /* \"#utility.yul\":1737:2211   */\n      swap3\n      pop\n      swap3\n      swap1\n      pop\n      jump\t// out\n        /* \"#utility.yul\":2217:2326   */\n    tag_166:\n        /* \"#utility.yul\":2298:2319   */\n      tag_168\n        /* \"#utility.yul\":2313:2318   */\n      dup2\n        /* \"#utility.yul\":2298:2319   */\n      tag_169\n      jump\t// in\n    tag_168:\n        /* \"#utility.yul\":2293:2296   */\n      dup3\n        /* \"#utility.yul\":2286:2320   */\n      mstore\n        /* \"#utility.yul\":2217:2326   */\n      pop\n      pop\n      jump\t// out\n        /* \"#utility.yul\":2332:2696   */\n    tag_170:\n        /* \"#utility.yul\":2420:2423   */\n      0x00\n        /* \"#utility.yul\":2448:2487   */\n      tag_172\n        /* \"#utility.yul\":2481:2486   */\n      dup3\n        /* \"#utility.yul\":2448:2487   */\n      tag_173\n      jump\t// in\n    tag_172:\n        /* \"#utility.yul\":2503:2574   */\n      tag_174\n        /* \"#utility.yul\":2567:2573   */\n      dup2\n        /* \"#utility.yul\":2562:2565   */\n      dup6\n        /* \"#utility.yul\":2503:2574   */\n      tag_175\n      jump\t// in\n    tag_174:\n        /* \"#utility.yul\":2496:2574   */\n      swap4\n      pop\n        /* \"#utility.yul\":2583:2635   */\n      tag_176\n        /* \"#utility.yul\":2628:2634   */\n      dup2\n        /* \"#utility.yul\":2623:2626   */\n      dup6\n        /* \"#utility.yul\":2616:2620   */\n      0x20\n        /* \"#utility.yul\":2609:2614   */\n      dup7\n        /* \"#utility.yul\":2605:2621   */\n      add\n        /* \"#utility.yul\":2583:2635   */\n      tag_177\n      jump\t// in\n    tag_176:\n        /* \"#utility.yul\":2660:2689   */\n      tag_178\n        /* \"#utility.yul\":2682:2688   */\n      dup2\n        /* \"#utility.yul\":2660:2689   */\n      tag_179\n      jump\t// in\n    tag_178:\n        /* \"#utility.yul\":2655:2658   */\n      dup5\n        /* \"#utility.yul\":2651:2690   */\n      add\n        /* \"#utility.yul\":2644:2690   */\n      swap2\n      pop\n        /* \"#utility.yul\":2424:2696   */\n      pop\n        /* \"#utility.yul\":2332:2696   */\n      swap3\n      swap2\n      pop\n      pop\n      jump\t// out\n        /* \"#utility.yul\":2702:3068   */\n    tag_180:\n        /* \"#utility.yul\":2844:2847   */\n      0x00\n        /* \"#utility.yul\":2865:2932   */\n      tag_182\n        /* \"#utility.yul\":2929:2931   */\n      0x0f\n        /* \"#utility.yul\":2924:2927   */\n      dup4\n        /* \"#utility.yul\":2865:2932   */\n      tag_175\n      jump\t// in\n    tag_182:\n        /* \"#utility.yul\":2858:2932   */\n      swap2\n      pop\n        /* \"#utility.yul\":2941:3034   */\n      tag_183\n        /* \"#utility.yul\":3030:3033   */\n      dup3\n        /* \"#utility.yul\":2941:3034   */\n      tag_184\n      jump\t// in\n    tag_183:\n        /* \"#utility.yul\":3059:3061   */\n      0x20\n        /* \"#utility.yul\":3054:3057   */\n      dup3\n        /* \"#utility.yul\":3050:3062   */\n      add\n        /* \"#utility.yul\":3043:3062   */\n      swap1\n      pop\n        /* \"#utility.yul\":2702:3068   */\n      swap2\n      swap1\n      pop\n      jump\t// out\n        /* \"#utility.yul\":3074:3440   */\n    tag_185:\n        /* \"#utility.yul\":3216:3219   */\n      0x00\n        /* \"#utility.yul\":3237:3304   */\n      tag_187\n        /* \"#utility.yul\":3301:3303   */\n      0x2f\n        /* \"#utility.yul\":3296:3299   */\n      dup4\n        /* \"#utility.yul\":3237:3304   */\n      tag_175\n      jump\t// in\n    tag_187:\n        /* \"#utility.yul\":3230:3304   */\n      swap2\n      pop\n        /* \"#utility.yul\":3313:3406   */\n      tag_188\n        /* \"#utility.yul\":3402:3405   */\n      dup3\n        /* \"#utility.yul\":3313:3406   */\n      tag_189\n      jump\t// in\n    tag_188:\n        /* \"#utility.yul\":3431:3433   */\n      0x40\n        /* \"#utility.yul\":3426:3429   */\n      dup3\n        /* \"#utility.yul\":3422:3434   */\n      add\n        /* \"#utility.yul\":3415:3434   */\n      swap1\n      pop\n        /* \"#utility.yul\":3074:3440   */\n      swap2\n      swap1\n      pop\n      jump\t// out\n        /* \"#utility.yul\":3446:3812   */\n    tag_190:\n        /* \"#utility.yul\":3588:3591   */\n      0x00\n        /* \"#utility.yul\":3609:3676   */\n      tag_192\n        /* \"#utility.yul\":3673:3675   */\n      0x20\n        /* \"#utility.yul\":3668:3671   */\n      dup4\n        /* \"#utility.yul\":3609:3676   */\n      tag_175\n      jump\t// in\n    tag_192:\n        /* \"#utility.yul\":3602:3676   */\n      swap2\n      pop\n        /* \"#utility.yul\":3685:3778   */\n      tag_193\n        /* \"#utility.yul\":3774:3777   */\n      dup3\n        /* \"#utility.yul\":3685:3778   */\n      tag_194\n      jump\t// in\n    tag_193:\n        /* \"#utility.yul\":3803:3805   */\n      0x20\n        /* \"#utility.yul\":3798:3801   */\n      dup3\n        /* \"#utility.yul\":3794:3806   */\n      add\n        /* \"#utility.yul\":3787:3806   */\n      swap1\n      pop\n        /* \"#utility.yul\":3446:3812   */\n      swap2\n      swap1\n      pop\n      jump\t// out\n        /* \"#utility.yul\":3818:4184   */\n    tag_195:\n        /* \"#utility.yul\":3960:3963   */\n      0x00\n        /* \"#utility.yul\":3981:4048   */\n      tag_197\n        /* \"#utility.yul\":4045:4047   */\n      0x1d\n        /* \"#utility.yul\":4040:4043   */\n      dup4\n        /* \"#utility.yul\":3981:4048   */\n      tag_175\n      jump\t// in\n    tag_197:\n        /* \"#utility.yul\":3974:4048   */\n      swap2\n      pop\n        /* \"#utility.yul\":4057:4150   */\n      tag_198\n        /* \"#utility.yul\":4146:4149   */\n      dup3\n        /* \"#utility.yul\":4057:4150   */\n      tag_199\n      jump\t// in\n    tag_198:\n        /* \"#utility.yul\":4175:4177   */\n      0x20\n        /* \"#utility.yul\":4170:4173   */\n      dup3\n        /* \"#utility.yul\":4166:4178   */\n      add\n        /* \"#utility.yul\":4159:4178   */\n      swap1\n      pop\n        /* \"#utility.yul\":3818:4184   */\n      swap2\n      swap1\n      pop\n      jump\t// out\n        /* \"#utility.yul\":4190:4308   */\n    tag_200:\n        /* \"#utility.yul\":4277:4301   */\n      tag_202\n        /* \"#utility.yul\":4295:4300   */\n      dup2\n        /* \"#utility.yul\":4277:4301   */\n      tag_203\n      jump\t// in\n    tag_202:\n        /* \"#utility.yul\":4272:4275   */\n      dup3\n        /* \"#utility.yul\":4265:4302   */\n      mstore\n        /* \"#utility.yul\":4190:4308   */\n      pop\n      pop\n      jump\t// out\n        /* \"#utility.yul\":4314:4524   */\n    tag_26:\n        /* \"#utility.yul\":4401:4405   */\n      0x00\n        /* \"#utility.yul\":4439:4441   */\n      0x20\n        /* \"#utility.yul\":4428:4437   */\n      dup3\n        /* \"#utility.yul\":4424:4442   */\n      add\n        /* \"#utility.yul\":4416:4442   */\n      swap1\n      pop\n        /* \"#utility.yul\":4452:4517   */\n      tag_205\n        /* \"#utility.yul\":4514:4515   */\n      0x00\n        /* \"#utility.yul\":4503:4512   */\n      dup4\n        /* \"#utility.yul\":4499:4516   */\n      add\n        /* \"#utility.yul\":4490:4496   */\n      dup5\n        /* \"#utility.yul\":4452:4517   */\n      tag_166\n      jump\t// in\n    tag_205:\n        /* \"#utility.yul\":4314:4524   */\n      swap3\n      swap2\n      pop\n      pop\n      jump\t// out\n        /* \"#utility.yul\":4530:4843   */\n    tag_19:\n        /* \"#utility.yul\":4643:4647   */\n      0x00\n        /* \"#utility.yul\":4681:4683   */\n      0x20\n        /* \"#utility.yul\":4670:4679   */\n      dup3\n        /* \"#utility.yul\":4666:4684   */\n      add\n        /* \"#utility.yul\":4658:4684   */\n      swap1\n      pop\n        /* \"#utility.yul\":4730:4739   */\n      dup2\n        /* \"#utility.yul\":4724:4728   */\n      dup2\n        /* \"#utility.yul\":4720:4740   */\n      sub\n        /* \"#utility.yul\":4716:4717   */\n      0x00\n        /* \"#utility.yul\":4705:4714   */\n      dup4\n        /* \"#utility.yul\":4701:4718   */\n      add\n        /* \"#utility.yul\":4694:4741   */\n      mstore\n        /* \"#utility.yul\":4758:4836   */\n      tag_207\n        /* \"#utility.yul\":4831:4835   */\n      dup2\n        /* \"#utility.yul\":4822:4828   */\n      dup5\n        /* \"#utility.yul\":4758:4836   */\n      tag_170\n      jump\t// in\n    tag_207:\n        /* \"#utility.yul\":4750:4836   */\n      swap1\n      pop\n        /* \"#utility.yul\":4530:4843   */\n      swap3\n      swap2\n      pop\n      pop\n      jump\t// out\n        /* \"#utility.yul\":4849:5268   */\n    tag_84:\n        /* \"#utility.yul\":5015:5019   */\n      0x00\n        /* \"#utility.yul\":5053:5055   */\n      0x20\n        /* \"#utility.yul\":5042:5051   */\n      dup3\n        /* \"#utility.yul\":5038:5056   */\n      add\n        /* \"#utility.yul\":5030:5056   */\n      swap1\n      pop\n        /* \"#utility.yul\":5102:5111   */\n      dup2\n        /* \"#utility.yul\":5096:5100   */\n      dup2\n        /* \"#utility.yul\":5092:5112   */\n      sub\n        /* \"#utility.yul\":5088:5089   */\n      0x00\n        /* \"#utility.yul\":5077:5086   */\n      dup4\n        /* \"#utility.yul\":5073:5090   */\n      add\n        /* \"#utility.yul\":5066:5113   */\n      mstore\n        /* \"#utility.yul\":5130:5261   */\n      tag_209\n        /* \"#utility.yul\":5256:5260   */\n      dup2\n        /* \"#utility.yul\":5130:5261   */\n      tag_180\n      jump\t// in\n    tag_209:\n        /* \"#utility.yul\":5122:5261   */\n      swap1\n      pop\n        /* \"#utility.yul\":4849:5268   */\n      swap2\n      swap1\n      pop\n      jump\t// out\n        /* \"#utility.yul\":5274:5693   */\n    tag_95:\n        /* \"#utility.yul\":5440:5444   */\n      0x00\n        /* \"#utility.yul\":5478:5480   */\n      0x20\n        /* \"#utility.yul\":5467:5476   */\n      dup3\n        /* \"#utility.yul\":5463:5481   */\n      add\n        /* \"#utility.yul\":5455:5481   */\n      swap1\n      pop\n        /* \"#utility.yul\":5527:5536   */\n      dup2\n        /* \"#utility.yul\":5521:5525   */\n      dup2\n        /* \"#utility.yul\":5517:5537   */\n      sub\n        /* \"#utility.yul\":5513:5514   */\n      0x00\n        /* \"#utility.yul\":5502:5511   */\n      dup4\n        /* \"#utility.yul\":5498:5515   */\n      add\n        /* \"#utility.yul\":5491:5538   */\n      mstore\n        /* \"#utility.yul\":5555:5686   */\n      tag_211\n        /* \"#utility.yul\":5681:5685   */\n      dup2\n        /* \"#utility.yul\":5555:5686   */\n      tag_185\n      jump\t// in\n    tag_211:\n        /* \"#utility.yul\":5547:5686   */\n      swap1\n      pop\n        /* \"#utility.yul\":5274:5693   */\n      swap2\n      swap1\n      pop\n      jump\t// out\n        /* \"#utility.yul\":5699:6118   */\n    tag_113:\n        /* \"#utility.yul\":5865:5869   */\n      0x00\n        /* \"#utility.yul\":5903:5905   */\n      0x20\n        /* \"#utility.yul\":5892:5901   */\n      dup3\n        /* \"#utility.yul\":5888:5906   */\n      add\n        /* \"#utility.yul\":5880:5906   */\n      swap1\n      pop\n        /* \"#utility.yul\":5952:5961   */\n      dup2\n        /* \"#utility.yul\":5946:5950   */\n      dup2\n        /* \"#utility.yul\":5942:5962   */\n      sub\n        /* \"#utility.yul\":5938:5939   */\n      0x00\n        /* \"#utility.yul\":5927:5936   */\n      dup4\n        /* \"#utility.yul\":5923:5940   */\n      add\n        /* \"#utility.yul\":5916:5963   */\n      mstore\n        /* \"#utility.yul\":5980:6111   */\n      tag_213\n        /* \"#utility.yul\":6106:6110   */\n      dup2\n        /* \"#utility.yul\":5980:6111   */\n      tag_190\n      jump\t// in\n    tag_213:\n        /* \"#utility.yul\":5972:6111   */\n      swap1\n      pop\n        /* \"#utility.yul\":5699:6118   */\n      swap2\n      swap1\n      pop\n      jump\t// out\n        /* \"#utility.yul\":6124:6543   */\n    tag_91:\n        /* \"#utility.yul\":6290:6294   */\n      0x00\n        /* \"#utility.yul\":6328:6330   */\n      0x20\n        /* \"#utility.yul\":6317:6326   */\n      dup3\n        /* \"#utility.yul\":6313:6331   */\n      add\n        /* \"#utility.yul\":6305:6331   */\n      swap1\n      pop\n        /* \"#utility.yul\":6377:6386   */\n      dup2\n        /* \"#utility.yul\":6371:6375   */\n      dup2\n        /* \"#utility.yul\":6367:6387   */\n      sub\n        /* \"#utility.yul\":6363:6364   */\n      0x00\n        /* \"#utility.yul\":6352:6361   */\n      dup4\n        /* \"#utility.yul\":6348:6365   */\n      add\n        /* \"#utility.yul\":6341:6388   */\n      mstore\n        /* \"#utility.yul\":6405:6536   */\n      tag_215\n        /* \"#utility.yul\":6531:6535   */\n      dup2\n        /* \"#utility.yul\":6405:6536   */\n      tag_195\n      jump\t// in\n    tag_215:\n        /* \"#utility.yul\":6397:6536   */\n      swap1\n      pop\n        /* \"#utility.yul\":6124:6543   */\n      swap2\n      swap1\n      pop\n      jump\t// out\n        /* \"#utility.yul\":6549:6771   */\n    tag_31:\n        /* \"#utility.yul\":6642:6646   */\n      0x00\n        /* \"#utility.yul\":6680:6682   */\n      0x20\n        /* \"#utility.yul\":6669:6678   */\n      dup3\n        /* \"#utility.yul\":6665:6683   */\n      add\n        /* \"#utility.yul\":6657:6683   */\n      swap1\n      pop\n        /* \"#utility.yul\":6693:6764   */\n      tag_217\n        /* \"#utility.yul\":6761:6762   */\n      0x00\n        /* \"#utility.yul\":6750:6759   */\n      dup4\n        /* \"#utility.yul\":6746:6763   */\n      add\n        /* \"#utility.yul\":6737:6743   */\n      dup5\n        /* \"#utility.yul\":6693:6764   */\n      tag_200\n      jump\t// in\n    tag_217:\n        /* \"#utility.yul\":6549:6771   */\n      swap3\n      swap2\n      pop\n      pop\n      jump\t// out\n        /* \"#utility.yul\":6858:6957   */\n    tag_173:\n        /* \"#utility.yul\":6910:6916   */\n      0x00\n        /* \"#utility.yul\":6944:6949   */\n      dup2\n        /* \"#utility.yul\":6938:6950   */\n      mload\n        /* \"#utility.yul\":6928:6950   */\n      swap1\n      pop\n        /* \"#utility.yul\":6858:6957   */\n      swap2\n      swap1\n      pop\n      jump\t// out\n        /* \"#utility.yul\":6963:7132   */\n    tag_175:\n        /* \"#utility.yul\":7047:7058   */\n      0x00\n        /* \"#utility.yul\":7081:7087   */\n      dup3\n        /* \"#utility.yul\":7076:7079   */\n      dup3\n        /* \"#utility.yul\":7069:7088   */\n      mstore\n        /* \"#utility.yul\":7121:7125   */\n      0x20\n        /* \"#utility.yul\":7116:7119   */\n      dup3\n        /* \"#utility.yul\":7112:7126   */\n      add\n        /* \"#utility.yul\":7097:7126   */\n      swap1\n      pop\n        /* \"#utility.yul\":6963:7132   */\n      swap3\n      swap2\n      pop\n      pop\n      jump\t// out\n        /* \"#utility.yul\":7138:7443   */\n    tag_104:\n        /* \"#utility.yul\":7178:7181   */\n      0x00\n        /* \"#utility.yul\":7197:7217   */\n      tag_223\n        /* \"#utility.yul\":7215:7216   */\n      dup3\n        /* \"#utility.yul\":7197:7217   */\n      tag_203\n      jump\t// in\n    tag_223:\n        /* \"#utility.yul\":7192:7217   */\n      swap2\n      pop\n        /* \"#utility.yul\":7231:7251   */\n      tag_224\n        /* \"#utility.yul\":7249:7250   */\n      dup4\n        /* \"#utility.yul\":7231:7251   */\n      tag_203\n      jump\t// in\n    tag_224:\n        /* \"#utility.yul\":7226:7251   */\n      swap3\n      pop\n        /* \"#utility.yul\":7385:7386   */\n      dup3\n        /* \"#utility.yul\":7317:7383   */\n      0xffffffffffffffffffffffffffffffffffffffffffffffffffffffffffffffff\n        /* \"#utility.yul\":7313:7387   */\n      sub\n        /* \"#utility.yul\":7310:7311   */\n      dup3\n        /* \"#utility.yul\":7307:7388   */\n      gt\n        /* \"#utility.yul\":7304:7411   */\n      iszero\n      tag_225\n      jumpi\n        /* \"#utility.yul\":7391:7409   */\n      tag_226\n      tag_227\n      jump\t// in\n    tag_226:\n        /* \"#utility.yul\":7304:7411   */\n    tag_225:\n        /* \"#utility.yul\":7435:7436   */\n      dup3\n        /* \"#utility.yul\":7432:7433   */\n      dup3\n        /* \"#utility.yul\":7428:7437   */\n      add\n        /* \"#utility.yul\":7421:7437   */\n      swap1\n      pop\n        /* \"#utility.yul\":7138:7443   */\n      swap3\n      swap2\n      pop\n      pop\n      jump\t// out\n        /* \"#utility.yul\":7449:7634   */\n    tag_115:\n        /* \"#utility.yul\":7489:7490   */\n      0x00\n        /* \"#utility.yul\":7506:7526   */\n      tag_229\n        /* \"#utility.yul\":7524:7525   */\n      dup3\n        /* \"#utility.yul\":7506:7526   */\n      tag_203\n      jump\t// in\n    tag_229:\n        /* \"#utility.yul\":7501:7526   */\n      swap2\n      pop\n        /* \"#utility.yul\":7540:7560   */\n      tag_230\n        /* \"#utility.yul\":7558:7559   */\n      dup4\n        /* \"#utility.yul\":7540:7560   */\n      tag_203\n      jump\t// in\n    tag_230:\n        /* \"#utility.yul\":7535:7560   */\n      swap3\n      pop\n        /* \"#utility.yul\":7579:7580   */\n      dup3\n        /* \"#utility.yul\":7569:7604   */\n      tag_231\n      jumpi\n        /* \"#utility.yul\":7584:7602   */\n      tag_232\n      tag_233\n      jump\t// in\n    tag_232:\n        /* \"#utility.yul\":7569:7604   */\n    tag_231:\n        /* \"#utility.yul\":7626:7627   */\n      dup3\n        /* \"#utility.yul\":7623:7624   */\n      dup3\n        /* \"#utility.yul\":7619:7628   */\n      div\n        /* \"#utility.yul\":7614:7628   */\n      swap1\n      pop\n        /* \"#utility.yul\":7449:7634   */\n      swap3\n      swap2\n      pop\n      pop\n      jump\t// out\n        /* \"#utility.yul\":7640:7831   */\n    tag_101:\n        /* \"#utility.yul\":7680:7684   */\n      0x00\n        /* \"#utility.yul\":7700:7720   */\n      tag_235\n        /* \"#utility.yul\":7718:7719   */\n      dup3\n        /* \"#utility.yul\":7700:7720   */\n      tag_203\n      jump\t// in\n    tag_235:\n        /* \"#utility.yul\":7695:7720   */\n      swap2\n      pop\n        /* \"#utility.yul\":7734:7754   */\n      tag_236\n        /* \"#utility.yul\":7752:7753   */\n      dup4\n        /* \"#utility.yul\":7734:7754   */\n      tag_203\n      jump\t// in\n    tag_236:\n        /* \"#utility.yul\":7729:7754   */\n      swap3\n      pop\n        /* \"#utility.yul\":7773:7774   */\n      dup3\n        /* \"#utility.yul\":7770:7771   */\n      dup3\n        /* \"#utility.yul\":7767:7775   */\n      lt\n        /* \"#utility.yul\":7764:7798   */\n      iszero\n      tag_237\n      jumpi\n        /* \"#utility.yul\":7778:7796   */\n      tag_238\n      tag_227\n      jump\t// in\n    tag_238:\n        /* \"#utility.yul\":7764:7798   */\n    tag_237:\n        /* \"#utility.yul\":7823:7824   */\n      dup3\n        /* \"#utility.yul\":7820:7821   */\n      dup3\n        /* \"#utility.yul\":7816:7825   */\n      sub\n        /* \"#utility.yul\":7808:7825   */\n      swap1\n      pop\n        /* \"#utility.yul\":7640:7831   */\n      swap3\n      swap2\n      pop\n      pop\n      jump\t// out\n        /* \"#utility.yul\":7837:7933   */\n    tag_239:\n        /* \"#utility.yul\":7874:7881   */\n      0x00\n        /* \"#utility.yul\":7903:7927   */\n      tag_241\n        /* \"#utility.yul\":7921:7926   */\n      dup3\n        /* \"#utility.yul\":7903:7927   */\n      tag_242\n      jump\t// in\n    tag_241:\n        /* \"#utility.yul\":7892:7927   */\n      swap1\n      pop\n        /* \"#utility.yul\":7837:7933   */\n      swap2\n      swap1\n      pop\n      jump\t// out\n        /* \"#utility.yul\":7939:8029   */\n    tag_169:\n        /* \"#utility.yul\":7973:7980   */\n      0x00\n        /* \"#utility.yul\":8016:8021   */\n      dup2\n        /* \"#utility.yul\":8009:8022   */\n      iszero\n        /* \"#utility.yul\":8002:8023   */\n      iszero\n        /* \"#utility.yul\":7991:8023   */\n      swap1\n      pop\n        /* \"#utility.yul\":7939:8029   */\n      swap2\n      swap1\n      pop\n      jump\t// out\n        /* \"#utility.yul\":8035:8161   */\n    tag_242:\n        /* \"#utility.yul\":8072:8079   */\n      0x00\n        /* \"#utility.yul\":8112:8154   */\n      0xffffffffffffffffffffffffffffffffffffffff\n        /* \"#utility.yul\":8105:8110   */\n      dup3\n        /* \"#utility.yul\":8101:8155   */\n      and\n        /* \"#utility.yul\":8090:8155   */\n      swap1\n      pop\n        /* \"#utility.yul\":8035:8161   */\n      swap2\n      swap1\n      pop\n      jump\t// out\n        /* \"#utility.yul\":8167:8244   */\n    tag_203:\n        /* \"#utility.yul\":8204:8211   */\n      0x00\n        /* \"#utility.yul\":8233:8238   */\n      dup2\n        /* \"#utility.yul\":8222:8238   */\n      swap1\n      pop\n        /* \"#utility.yul\":8167:8244   */\n      swap2\n      swap1\n      pop\n      jump\t// out\n        /* \"#utility.yul\":8250:8557   */\n    tag_177:\n        /* \"#utility.yul\":8318:8319   */\n      0x00\n        /* \"#utility.yul\":8328:8441   */\n    tag_247:\n        /* \"#utility.yul\":8342:8348   */\n      dup4\n        /* \"#utility.yul\":8339:8340   */\n      dup2\n        /* \"#utility.yul\":8336:8349   */\n      lt\n        /* \"#utility.yul\":8328:8441   */\n      iszero\n      tag_249\n      jumpi\n        /* \"#utility.yul\":8427:8428   */\n      dup1\n        /* \"#utility.yul\":8422:8425   */\n      dup3\n        /* \"#utility.yul\":8418:8429   */\n      add\n        /* \"#utility.yul\":8412:8430   */\n      mload\n        /* \"#utility.yul\":8408:8409   */\n      dup2\n        /* \"#utility.yul\":8403:8406   */\n      dup5\n        /* \"#utility.yul\":8399:8410   */\n      add\n        /* \"#utility.yul\":8392:8431   */\n      mstore\n        /* \"#utility.yul\":8364:8366   */\n      0x20\n        /* \"#utility.yul\":8361:8362   */\n      dup2\n        /* \"#utility.yul\":8357:8367   */\n      add\n        /* \"#utility.yul\":8352:8367   */\n      swap1\n      pop\n        /* \"#utility.yul\":8328:8441   */\n      jump(tag_247)\n    tag_249:\n        /* \"#utility.yul\":8459:8465   */\n      dup4\n        /* \"#utility.yul\":8456:8457   */\n      dup2\n        /* \"#utility.yul\":8453:8466   */\n      gt\n        /* \"#utility.yul\":8450:8551   */\n      iszero\n      tag_250\n      jumpi\n        /* \"#utility.yul\":8539:8540   */\n      0x00\n        /* \"#utility.yul\":8530:8536   */\n      dup5\n        /* \"#utility.yul\":8525:8528   */\n      dup5\n        /* \"#utility.yul\":8521:8537   */\n      add\n        /* \"#utility.yul\":8514:8541   */\n      mstore\n        /* \"#utility.yul\":8450:8551   */\n    tag_250:\n        /* \"#utility.yul\":8299:8557   */\n      pop\n        /* \"#utility.yul\":8250:8557   */\n      pop\n      pop\n      pop\n      jump\t// out\n        /* \"#utility.yul\":8563:8883   */\n    tag_76:\n        /* \"#utility.yul\":8607:8613   */\n      0x00\n        /* \"#utility.yul\":8644:8645   */\n      0x02\n        /* \"#utility.yul\":8638:8642   */\n      dup3\n        /* \"#utility.yul\":8634:8646   */\n      div\n        /* \"#utility.yul\":8624:8646   */\n      swap1\n      pop\n        /* \"#utility.yul\":8691:8692   */\n      0x01\n        /* \"#utility.yul\":8685:8689   */\n      dup3\n        /* \"#utility.yul\":8681:8693   */\n      and\n        /* \"#utility.yul\":8712:8730   */\n      dup1\n        /* \"#utility.yul\":8702:8783   */\n      tag_252\n      jumpi\n        /* \"#utility.yul\":8768:8772   */\n      0x7f\n        /* \"#utility.yul\":8760:8766   */\n      dup3\n        /* \"#utility.yul\":8756:8773   */\n      and\n        /* \"#utility.yul\":8746:8773   */\n      swap2\n      pop\n        /* \"#utility.yul\":8702:8783   */\n    tag_252:\n        /* \"#utility.yul\":8830:8832   */\n      0x20\n        /* \"#utility.yul\":8822:8828   */\n      dup3\n        /* \"#utility.yul\":8819:8833   */\n      lt\n        /* \"#utility.yul\":8799:8817   */\n      dup2\n        /* \"#utility.yul\":8796:8834   */\n      eq\n        /* \"#utility.yul\":8793:8877   */\n      iszero\n      tag_253\n      jumpi\n        /* \"#utility.yul\":8849:8867   */\n      tag_254\n      tag_255\n      jump\t// in\n    tag_254:\n        /* \"#utility.yul\":8793:8877   */\n    tag_253:\n        /* \"#utility.yul\":8614:8883   */\n      pop\n        /* \"#utility.yul\":8563:8883   */\n      swap2\n      swap1\n      pop\n      jump\t// out\n        /* \"#utility.yul\":8889:9069   */\n    tag_227:\n        /* \"#utility.yul\":8937:9014   */\n      0x4e487b7100000000000000000000000000000000000000000000000000000000\n        /* \"#utility.yul\":8934:8935   */\n      0x00\n        /* \"#utility.yul\":8927:9015   */\n      mstore\n        /* \"#utility.yul\":9034:9038   */\n      0x11\n        /* \"#utility.yul\":9031:9032   */\n      0x04\n        /* \"#utility.yul\":9024:9039   */\n      mstore\n        /* \"#utility.yul\":9058:9062   */\n      0x24\n        /* \"#utility.yul\":9055:9056   */\n      0x00\n        /* \"#utility.yul\":9048:9063   */\n      revert\n        /* \"#utility.yul\":9075:9255   */\n    tag_233:\n        /* \"#utility.yul\":9123:9200   */\n      0x4e487b7100000000000000000000000000000000000000000000000000000000\n        /* \"#utility.yul\":9120:9121   */\n      0x00\n        /* \"#utility.yul\":9113:9201   */\n      mstore\n        /* \"#utility.yul\":9220:9224   */\n      0x12\n        /* \"#utility.yul\":9217:9218   */\n      0x04\n        /* \"#utility.yul\":9210:9225   */\n      mstore\n        /* \"#utility.yul\":9244:9248   */\n      0x24\n        /* \"#utility.yul\":9241:9242   */\n      0x00\n        /* \"#utility.yul\":9234:9249   */\n      revert\n        /* \"#utility.yul\":9261:9441   */\n    tag_255:\n        /* \"#utility.yul\":9309:9386   */\n      0x4e487b7100000000000000000000000000000000000000000000000000000000\n        /* \"#utility.yul\":9306:9307   */\n      0x00\n        /* \"#utility.yul\":9299:9387   */\n      mstore\n        /* \"#utility.yul\":9406:9410   */\n      0x22\n        /* \"#utility.yul\":9403:9404   */\n      0x04\n        /* \"#utility.yul\":9396:9411   */\n      mstore\n        /* \"#utility.yul\":9430:9434   */\n      0x24\n        /* \"#utility.yul\":9427:9428   */\n      0x00\n        /* \"#utility.yul\":9420:9435   */\n      revert\n        /* \"#utility.yul\":9570:9687   */\n    tag_148:\n        /* \"#utility.yul\":9679:9680   */\n      0x00\n        /* \"#utility.yul\":9676:9677   */\n      dup1\n        /* \"#utility.yul\":9669:9681   */\n      revert\n        /* \"#utility.yul\":9693:9795   */\n    tag_179:\n        /* \"#utility.yul\":9734:9740   */\n      0x00\n        /* \"#utility.yul\":9785:9787   */\n      0x1f\n        /* \"#utility.yul\":9781:9788   */\n      not\n        /* \"#utility.yul\":9776:9778   */\n      0x1f\n        /* \"#utility.yul\":9769:9774   */\n      dup4\n        /* \"#utility.yul\":9765:9779   */\n      add\n        /* \"#utility.yul\":9761:9789   */\n      and\n        /* \"#utility.yul\":9751:9789   */\n      swap1\n      pop\n        /* \"#utility.yul\":9693:9795   */\n      swap2\n      swap1\n      pop\n      jump\t// out\n        /* \"#utility.yul\":9801:9966   */\n    tag_184:\n        /* \"#utility.yul\":9941:9958   */\n      0x496e76616c696420616464726573730000000000000000000000000000000000\n        /* \"#utility.yul\":9937:9938   */\n      0x00\n        /* \"#utility.yul\":9929:9935   */\n      dup3\n        /* \"#utility.yul\":9925:9939   */\n      add\n        /* \"#utility.yul\":9918:9959   */\n      mstore\n        /* \"#utility.yul\":9801:9966   */\n      pop\n      jump\t// out\n        /* \"#utility.yul\":9972:10206   */\n    tag_189:\n        /* \"#utility.yul\":10112:10146   */\n      0x496e73756666696369656e7420616c6c6f77616e636520666f72207468697320\n        /* \"#utility.yul\":10108:10109   */\n      0x00\n        /* \"#utility.yul\":10100:10106   */\n      dup3\n        /* \"#utility.yul\":10096:10110   */\n      add\n        /* \"#utility.yul\":10089:10147   */\n      mstore\n        /* \"#utility.yul\":10181:10198   */\n      0x557365722066726f6d206f776e65720000000000000000000000000000000000\n        /* \"#utility.yul\":10176:10178   */\n      0x20\n        /* \"#utility.yul\":10168:10174   */\n      dup3\n        /* \"#utility.yul\":10164:10179   */\n      add\n        /* \"#utility.yul\":10157:10199   */\n      mstore\n        /* \"#utility.yul\":9972:10206   */\n      pop\n      jump\t// out\n        /* \"#utility.yul\":10212:10394   */\n    tag_194:\n        /* \"#utility.yul\":10352:10386   */\n      0x4e65656420746f2073656e6420657861637420616d6f756e74206f6620776569\n        /* \"#utility.yul\":10348:10349   */\n      0x00\n        /* \"#utility.yul\":10340:10346   */\n      dup3\n        /* \"#utility.yul\":10336:10350   */\n      add\n        /* \"#utility.yul\":10329:10387   */\n      mstore\n        /* \"#utility.yul\":10212:10394   */\n      pop\n      jump\t// out\n        /* \"#utility.yul\":10400:10579   */\n    tag_199:\n        /* \"#utility.yul\":10540:10571   */\n      0x496e73756666696369656e742042616c616e636520666f722055736572000000\n        /* \"#utility.yul\":10536:10537   */\n      0x00\n        /* \"#utility.yul\":10528:10534   */\n      dup3\n        /* \"#utility.yul\":10524:10538   */\n      add\n        /* \"#utility.yul\":10517:10572   */\n      mstore\n        /* \"#utility.yul\":10400:10579   */\n      pop\n      jump\t// out\n        /* \"#utility.yul\":10585:10707   */\n    tag_140:\n        /* \"#utility.yul\":10658:10682   */\n      tag_268\n        /* \"#utility.yul\":10676:10681   */\n      dup2\n        /* \"#utility.yul\":10658:10682   */\n      tag_239\n      jump\t// in\n    tag_268:\n        /* \"#utility.yul\":10651:10656   */\n      dup2\n        /* \"#utility.yul\":10648:10683   */\n      eq\n        /* \"#utility.yul\":10638:10701   */\n      tag_269\n      jumpi\n        /* \"#utility.yul\":10697:10698   */\n      0x00\n        /* \"#utility.yul\":10694:10695   */\n      dup1\n        /* \"#utility.yul\":10687:10699   */\n      revert\n        /* \"#utility.yul\":10638:10701   */\n    tag_269:\n        /* \"#utility.yul\":10585:10707   */\n      pop\n      jump\t// out\n        /* \"#utility.yul\":10713:10835   */\n    tag_144:\n        /* \"#utility.yul\":10786:10810   */\n      tag_271\n        /* \"#utility.yul\":10804:10809   */\n      dup2\n        /* \"#utility.yul\":10786:10810   */\n      tag_203\n      jump\t// in\n    tag_271:\n        /* \"#utility.yul\":10779:10784   */\n      dup2\n        /* \"#utility.yul\":10776:10811   */\n      eq\n        /* \"#utility.yul\":10766:10829   */\n      tag_272\n      jumpi\n        /* \"#utility.yul\":10825:10826   */\n      0x00\n        /* \"#utility.yul\":10822:10823   */\n      dup1\n        /* \"#utility.yul\":10815:10827   */\n      revert\n        /* \"#utility.yul\":10766:10829   */\n    tag_272:\n        /* \"#utility.yul\":10713:10835   */\n      pop\n      jump\t// out\n\n    auxdata: 0xa2646970667358221220e34563c3fc1f911f898559807cf1d0d87fef95a0b4b56bde18798e02ca0ce39f64736f6c63430008070033\n}\n",
				"bytecode": {
					"linkReferences": {},
					"object": "60806040523480156200001157600080fd5b5060405162001a6f38038062001a6f83398181016040528101906200003791906200020b565b836003819055508260028190555081600490805190602001906200005d929190620000c6565b50806005908051906020019062000076929190620000c6565b506003546000803373ffffffffffffffffffffffffffffffffffffffff1673ffffffffffffffffffffffffffffffffffffffff168152602001908152602001600020819055505050505062000463565b828054620000d4906200035a565b90600052602060002090601f016020900481019282620000f8576000855562000144565b82601f106200011357805160ff191683800117855562000144565b8280016001018555821562000144579182015b828111156200014357825182559160200191906001019062000126565b5b50905062000153919062000157565b5090565b5b808211156200017257600081600090555060010162000158565b5090565b60006200018d6200018784620002e4565b620002bb565b905082815260208101848484011115620001ac57620001ab62000429565b5b620001b984828562000324565b509392505050565b600082601f830112620001d957620001d862000424565b5b8151620001eb84826020860162000176565b91505092915050565b600081519050620002058162000449565b92915050565b6000806000806080858703121562000228576200022762000433565b5b60006200023887828801620001f4565b94505060206200024b87828801620001f4565b935050604085015167ffffffffffffffff8111156200026f576200026e6200042e565b5b6200027d87828801620001c1565b925050606085015167ffffffffffffffff811115620002a157620002a06200042e565b5b620002af87828801620001c1565b91505092959194509250565b6000620002c7620002da565b9050620002d5828262000390565b919050565b6000604051905090565b600067ffffffffffffffff821115620003025762000301620003f5565b5b6200030d8262000438565b9050602081019050919050565b6000819050919050565b60005b838110156200034457808201518184015260208101905062000327565b8381111562000354576000848401525b50505050565b600060028204905060018216806200037357607f821691505b602082108114156200038a5762000389620003c6565b5b50919050565b6200039b8262000438565b810181811067ffffffffffffffff82111715620003bd57620003bc620003f5565b5b80604052505050565b7f4e487b7100000000000000000000000000000000000000000000000000000000600052602260045260246000fd5b7f4e487b7100000000000000000000000000000000000000000000000000000000600052604160045260246000fd5b600080fd5b600080fd5b600080fd5b600080fd5b6000601f19601f8301169050919050565b62000454816200031a565b81146200046057600080fd5b50565b6115fc80620004736000396000f3fe6080604052600436106100a75760003560e01c806370a082311161006457806370a08231146101d25780637e72fb521461020f5780637ff9b5961461023f57806395d89b411461026a578063a9059cbb14610295578063dd62ed3e146102d2576100a7565b806306fdde03146100ac578063095ea7b3146100d757806318160ddd1461011457806323b872dd1461013f578063313ce5671461017c578063324536eb146101a7575b600080fd5b3480156100b857600080fd5b506100c161030f565b6040516100ce91906111ea565b60405180910390f35b3480156100e357600080fd5b506100fe60048036038101906100f991906110ac565b61039d565b60405161010b91906111cf565b60405180910390f35b34801561012057600080fd5b50610129610501565b604051610136919061128c565b60405180910390f35b34801561014b57600080fd5b5061016660048036038101906101619190611059565b61050b565b60405161017391906111cf565b60405180910390f35b34801561018857600080fd5b50610191610959565b60405161019e919061128c565b60405180910390f35b3480156101b357600080fd5b506101bc61095f565b6040516101c9919061128c565b60405180910390f35b3480156101de57600080fd5b506101f960048036038101906101f49190610fec565b610965565b604051610206919061128c565b60405180910390f35b61022960048036038101906102249190610fec565b6109ad565b60405161023691906111cf565b60405180910390f35b34801561024b57600080fd5b50610254610c22565b604051610261919061128c565b60405180910390f35b34801561027657600080fd5b5061027f610c2d565b60405161028c91906111ea565b60405180910390f35b3480156102a157600080fd5b506102bc60048036038101906102b791906110ac565b610cbb565b6040516102c991906111cf565b60405180910390f35b3480156102de57600080fd5b506102f960048036038101906102f49190611019565b610f3b565b604051610306919061128c565b60405180910390f35b6004805461031c906113f9565b80601f0160208091040260200160405190810160405280929190818152602001828054610348906113f9565b80156103955780601f1061036a57610100808354040283529160200191610395565b820191906000526020600020905b81548152906001019060200180831161037857829003601f168201915b505050505081565b600082600073ffffffffffffffffffffffffffffffffffffffff168173ffffffffffffffffffffffffffffffffffffffff161415610410576040517f08c379a00000000000000000000000000000000000000000000000000000000081526004016104079061120c565b60405180910390fd5b82600160003373ffffffffffffffffffffffffffffffffffffffff1673ffffffffffffffffffffffffffffffffffffffff16815260200190815260200160002060008673ffffffffffffffffffffffffffffffffffffffff1673ffffffffffffffffffffffffffffffffffffffff168152602001908152602001600020819055508373ffffffffffffffffffffffffffffffffffffffff163373ffffffffffffffffffffffffffffffffffffffff167f8c5be1e5ebec7d5bd14f71427d1e84f3dd0314c0f7b2291e5b200ac8c7c3b925856040516104ee919061128c565b60405180910390a3600191505092915050565b6000600354905090565b600083826000808373ffffffffffffffffffffffffffffffffffffffff1673ffffffffffffffffffffffffffffffffffffffff16815260200190815260200160002054811115610590576040517f08c379a00000000000000000000000000000000000000000000000000000000081526004016105879061126c565b60405180910390fd5b853385600160008473ffffffffffffffffffffffffffffffffffffffff1673ffffffffffffffffffffffffffffffffffffffff16815260200190815260200160002060008373ffffffffffffffffffffffffffffffffffffffff1673ffffffffffffffffffffffffffffffffffffffff16815260200190815260200160002054811115610652576040517f08c379a00000000000000000000000000000000000000000000000000000000081526004016106499061122c565b60405180910390fd5b87600073ffffffffffffffffffffffffffffffffffffffff168173ffffffffffffffffffffffffffffffffffffffff1614156106c3576040517f08c379a00000000000000000000000000000000000000000000000000000000081526004016106ba9061120c565b60405180910390fd5b87600160008c73ffffffffffffffffffffffffffffffffffffffff1673ffffffffffffffffffffffffffffffffffffffff16815260200190815260200160002060003373ffffffffffffffffffffffffffffffffffffffff1673ffffffffffffffffffffffffffffffffffffffff1681526020019081526020016000205461074b919061134a565b600160008c73ffffffffffffffffffffffffffffffffffffffff1673ffffffffffffffffffffffffffffffffffffffff16815260200190815260200160002060003373ffffffffffffffffffffffffffffffffffffffff1673ffffffffffffffffffffffffffffffffffffffff16815260200190815260200160002081905550876000808c73ffffffffffffffffffffffffffffffffffffffff1673ffffffffffffffffffffffffffffffffffffffff16815260200190815260200160002054610815919061134a565b6000808c73ffffffffffffffffffffffffffffffffffffffff1673ffffffffffffffffffffffffffffffffffffffff16815260200190815260200160002081905550876000808b73ffffffffffffffffffffffffffffffffffffffff1673ffffffffffffffffffffffffffffffffffffffff168152602001908152602001600020546108a191906112c3565b6000808b73ffffffffffffffffffffffffffffffffffffffff1673ffffffffffffffffffffffffffffffffffffffff168152602001908152602001600020819055508873ffffffffffffffffffffffffffffffffffffffff168a73ffffffffffffffffffffffffffffffffffffffff167fddf252ad1be2c89b69c2b068fc378daa952ba7f163c4a11628f55a4df523b3ef8a604051610940919061128c565b60405180910390a3600196505050505050509392505050565b60025481565b60035481565b60008060008373ffffffffffffffffffffffffffffffffffffffff1673ffffffffffffffffffffffffffffffffffffffff168152602001908152602001600020549050919050565b600081600073ffffffffffffffffffffffffffffffffffffffff168173ffffffffffffffffffffffffffffffffffffffff161415610a20576040517f08c379a0000000000000000000000000000000000000000000000000000000008152600401610a179061120c565b60405180910390fd5b66038d7ea4c68000341015610a6a576040517f08c379a0000000000000000000000000000000000000000000000000000000008152600401610a619061124c565b60405180910390fd5b600066038d7ea4c6800034610a7f9190611319565b9050806000803373ffffffffffffffffffffffffffffffffffffffff1673ffffffffffffffffffffffffffffffffffffffff16815260200190815260200160002054610acb919061134a565b6000803373ffffffffffffffffffffffffffffffffffffffff1673ffffffffffffffffffffffffffffffffffffffff16815260200190815260200160002081905550806000808673ffffffffffffffffffffffffffffffffffffffff1673ffffffffffffffffffffffffffffffffffffffff16815260200190815260200160002054610b5791906112c3565b6000808673ffffffffffffffffffffffffffffffffffffffff1673ffffffffffffffffffffffffffffffffffffffff168152602001908152602001600020819055508060036000828254610bab91906112c3565b925050819055508373ffffffffffffffffffffffffffffffffffffffff163373ffffffffffffffffffffffffffffffffffffffff167fddf252ad1be2c89b69c2b068fc378daa952ba7f163c4a11628f55a4df523b3ef83604051610c0f919061128c565b60405180910390a3600192505050919050565b66038d7ea4c6800081565b60058054610c3a906113f9565b80601f0160208091040260200160405190810160405280929190818152602001828054610c66906113f9565b8015610cb35780601f10610c8857610100808354040283529160200191610cb3565b820191906000526020600020905b815481529060010190602001808311610c9657829003601f168201915b505050505081565b600033826000808373ffffffffffffffffffffffffffffffffffffffff1673ffffffffffffffffffffffffffffffffffffffff16815260200190815260200160002054811115610d40576040517f08c379a0000000000000000000000000000000000000000000000000000000008152600401610d379061126c565b60405180910390fd5b84600073ffffffffffffffffffffffffffffffffffffffff168173ffffffffffffffffffffffffffffffffffffffff161415610db1576040517f08c379a0000000000000000000000000000000000000000000000000000000008152600401610da89061120c565b60405180910390fd5b846000803373ffffffffffffffffffffffffffffffffffffffff1673ffffffffffffffffffffffffffffffffffffffff16815260200190815260200160002054610dfb919061134a565b6000803373ffffffffffffffffffffffffffffffffffffffff1673ffffffffffffffffffffffffffffffffffffffff16815260200190815260200160002081905550846000808873ffffffffffffffffffffffffffffffffffffffff1673ffffffffffffffffffffffffffffffffffffffff16815260200190815260200160002054610e8791906112c3565b6000808873ffffffffffffffffffffffffffffffffffffffff1673ffffffffffffffffffffffffffffffffffffffff168152602001908152602001600020819055508573ffffffffffffffffffffffffffffffffffffffff163373ffffffffffffffffffffffffffffffffffffffff167fddf252ad1be2c89b69c2b068fc378daa952ba7f163c4a11628f55a4df523b3ef87604051610f26919061128c565b60405180910390a36001935050505092915050565b6000600160008473ffffffffffffffffffffffffffffffffffffffff1673ffffffffffffffffffffffffffffffffffffffff16815260200190815260200160002060008373ffffffffffffffffffffffffffffffffffffffff1673ffffffffffffffffffffffffffffffffffffffff16815260200190815260200160002054905092915050565b600081359050610fd181611598565b92915050565b600081359050610fe6816115af565b92915050565b600060208284031215611002576110016114b8565b5b600061101084828501610fc2565b91505092915050565b600080604083850312156110305761102f6114b8565b5b600061103e85828601610fc2565b925050602061104f85828601610fc2565b9150509250929050565b600080600060608486031215611072576110716114b8565b5b600061108086828701610fc2565b935050602061109186828701610fc2565b92505060406110a286828701610fd7565b9150509250925092565b600080604083850312156110c3576110c26114b8565b5b60006110d185828601610fc2565b92505060206110e285828601610fd7565b9150509250929050565b6110f581611390565b82525050565b6000611106826112a7565b61111081856112b2565b93506111208185602086016113c6565b611129816114bd565b840191505092915050565b6000611141600f836112b2565b915061114c826114ce565b602082019050919050565b6000611164602f836112b2565b915061116f826114f7565b604082019050919050565b60006111876020836112b2565b915061119282611546565b602082019050919050565b60006111aa601d836112b2565b91506111b58261156f565b602082019050919050565b6111c9816113bc565b82525050565b60006020820190506111e460008301846110ec565b92915050565b6000602082019050818103600083015261120481846110fb565b905092915050565b6000602082019050818103600083015261122581611134565b9050919050565b6000602082019050818103600083015261124581611157565b9050919050565b600060208201905081810360008301526112658161117a565b9050919050565b600060208201905081810360008301526112858161119d565b9050919050565b60006020820190506112a160008301846111c0565b92915050565b600081519050919050565b600082825260208201905092915050565b60006112ce826113bc565b91506112d9836113bc565b9250827fffffffffffffffffffffffffffffffffffffffffffffffffffffffffffffffff0382111561130e5761130d61142b565b5b828201905092915050565b6000611324826113bc565b915061132f836113bc565b92508261133f5761133e61145a565b5b828204905092915050565b6000611355826113bc565b9150611360836113bc565b9250828210156113735761137261142b565b5b828203905092915050565b60006113898261139c565b9050919050565b60008115159050919050565b600073ffffffffffffffffffffffffffffffffffffffff82169050919050565b6000819050919050565b60005b838110156113e45780820151818401526020810190506113c9565b838111156113f3576000848401525b50505050565b6000600282049050600182168061141157607f821691505b6020821081141561142557611424611489565b5b50919050565b7f4e487b7100000000000000000000000000000000000000000000000000000000600052601160045260246000fd5b7f4e487b7100000000000000000000000000000000000000000000000000000000600052601260045260246000fd5b7f4e487b7100000000000000000000000000000000000000000000000000000000600052602260045260246000fd5b600080fd5b6000601f19601f8301169050919050565b7f496e76616c696420616464726573730000000000000000000000000000000000600082015250565b7f496e73756666696369656e7420616c6c6f77616e636520666f7220746869732060008201527f557365722066726f6d206f776e65720000000000000000000000000000000000602082015250565b7f4e65656420746f2073656e6420657861637420616d6f756e74206f6620776569600082015250565b7f496e73756666696369656e742042616c616e636520666f722055736572000000600082015250565b6115a18161137e565b81146115ac57600080fd5b50565b6115b8816113bc565b81146115c357600080fd5b5056fea2646970667358221220e34563c3fc1f911f898559807cf1d0d87fef95a0b4b56bde18798e02ca0ce39f64736f6c63430008070033",
					"opcodes": "PUSH1 0x80 PUSH1 0x40 MSTORE CALLVALUE DUP1 ISZERO PUSH3 0x11 JUMPI PUSH1 0x0 DUP1 REVERT JUMPDEST POP PUSH1 0x40 MLOAD PUSH3 0x1A6F CODESIZE SUB DUP1 PUSH3 0x1A6F DUP4 CODECOPY DUP2 DUP2 ADD PUSH1 0x40 MSTORE DUP2 ADD SWAP1 PUSH3 0x37 SWAP2 SWAP1 PUSH3 0x20B JUMP JUMPDEST DUP4 PUSH1 0x3 DUP2 SWAP1 SSTORE POP DUP3 PUSH1 0x2 DUP2 SWAP1 SSTORE POP DUP2 PUSH1 0x4 SWAP1 DUP1 MLOAD SWAP1 PUSH1 0x20 ADD SWAP1 PUSH3 0x5D SWAP3 SWAP2 SWAP1 PUSH3 0xC6 JUMP JUMPDEST POP DUP1 PUSH1 0x5 SWAP1 DUP1 MLOAD SWAP1 PUSH1 0x20 ADD SWAP1 PUSH3 0x76 SWAP3 SWAP2 SWAP1 PUSH3 0xC6 JUMP JUMPDEST POP PUSH1 0x3 SLOAD PUSH1 0x0 DUP1 CALLER PUSH20 0xFFFFFFFFFFFFFFFFFFFFFFFFFFFFFFFFFFFFFFFF AND PUSH20 0xFFFFFFFFFFFFFFFFFFFFFFFFFFFFFFFFFFFFFFFF AND DUP2 MSTORE PUSH1 0x20 ADD SWAP1 DUP2 MSTORE PUSH1 0x20 ADD PUSH1 0x0 KECCAK256 DUP2 SWAP1 SSTORE POP POP POP POP POP PUSH3 0x463 JUMP JUMPDEST DUP3 DUP1 SLOAD PUSH3 0xD4 SWAP1 PUSH3 0x35A JUMP JUMPDEST SWAP1 PUSH1 0x0 MSTORE PUSH1 0x20 PUSH1 0x0 KECCAK256 SWAP1 PUSH1 0x1F ADD PUSH1 0x20 SWAP1 DIV DUP2 ADD SWAP3 DUP3 PUSH3 0xF8 JUMPI PUSH1 0x0 DUP6 SSTORE PUSH3 0x144 JUMP JUMPDEST DUP3 PUSH1 0x1F LT PUSH3 0x113 JUMPI DUP1 MLOAD PUSH1 0xFF NOT AND DUP4 DUP1 ADD OR DUP6 SSTORE PUSH3 0x144 JUMP JUMPDEST DUP3 DUP1 ADD PUSH1 0x1 ADD DUP6 SSTORE DUP3 ISZERO PUSH3 0x144 JUMPI SWAP2 DUP3 ADD JUMPDEST DUP3 DUP2 GT ISZERO PUSH3 0x143 JUMPI DUP3 MLOAD DUP3 SSTORE SWAP2 PUSH1 0x20 ADD SWAP2 SWAP1 PUSH1 0x1 ADD SWAP1 PUSH3 0x126 JUMP JUMPDEST JUMPDEST POP SWAP1 POP PUSH3 0x153 SWAP2 SWAP1 PUSH3 0x157 JUMP JUMPDEST POP SWAP1 JUMP JUMPDEST JUMPDEST DUP1 DUP3 GT ISZERO PUSH3 0x172 JUMPI PUSH1 0x0 DUP2 PUSH1 0x0 SWAP1 SSTORE POP PUSH1 0x1 ADD PUSH3 0x158 JUMP JUMPDEST POP SWAP1 JUMP JUMPDEST PUSH1 0x0 PUSH3 0x18D PUSH3 0x187 DUP5 PUSH3 0x2E4 JUMP JUMPDEST PUSH3 0x2BB JUMP JUMPDEST SWAP1 POP DUP3 DUP2 MSTORE PUSH1 0x20 DUP2 ADD DUP5 DUP5 DUP5 ADD GT ISZERO PUSH3 0x1AC JUMPI PUSH3 0x1AB PUSH3 0x429 JUMP JUMPDEST JUMPDEST PUSH3 0x1B9 DUP5 DUP3 DUP6 PUSH3 0x324 JUMP JUMPDEST POP SWAP4 SWAP3 POP POP POP JUMP JUMPDEST PUSH1 0x0 DUP3 PUSH1 0x1F DUP4 ADD SLT PUSH3 0x1D9 JUMPI PUSH3 0x1D8 PUSH3 0x424 JUMP JUMPDEST JUMPDEST DUP2 MLOAD PUSH3 0x1EB DUP5 DUP3 PUSH1 0x20 DUP7 ADD PUSH3 0x176 JUMP JUMPDEST SWAP2 POP POP SWAP3 SWAP2 POP POP JUMP JUMPDEST PUSH1 0x0 DUP2 MLOAD SWAP1 POP PUSH3 0x205 DUP2 PUSH3 0x449 JUMP JUMPDEST SWAP3 SWAP2 POP POP JUMP JUMPDEST PUSH1 0x0 DUP1 PUSH1 0x0 DUP1 PUSH1 0x80 DUP6 DUP8 SUB SLT ISZERO PUSH3 0x228 JUMPI PUSH3 0x227 PUSH3 0x433 JUMP JUMPDEST JUMPDEST PUSH1 0x0 PUSH3 0x238 DUP8 DUP3 DUP9 ADD PUSH3 0x1F4 JUMP JUMPDEST SWAP5 POP POP PUSH1 0x20 PUSH3 0x24B DUP8 DUP3 DUP9 ADD PUSH3 0x1F4 JUMP JUMPDEST SWAP4 POP POP PUSH1 0x40 DUP6 ADD MLOAD PUSH8 0xFFFFFFFFFFFFFFFF DUP2 GT ISZERO PUSH3 0x26F JUMPI PUSH3 0x26E PUSH3 0x42E JUMP JUMPDEST JUMPDEST PUSH3 0x27D DUP8 DUP3 DUP9 ADD PUSH3 0x1C1 JUMP JUMPDEST SWAP3 POP POP PUSH1 0x60 DUP6 ADD MLOAD PUSH8 0xFFFFFFFFFFFFFFFF DUP2 GT ISZERO PUSH3 0x2A1 JUMPI PUSH3 0x2A0 PUSH3 0x42E JUMP JUMPDEST JUMPDEST PUSH3 0x2AF DUP8 DUP3 DUP9 ADD PUSH3 0x1C1 JUMP JUMPDEST SWAP2 POP POP SWAP3 SWAP6 SWAP2 SWAP5 POP SWAP3 POP JUMP JUMPDEST PUSH1 0x0 PUSH3 0x2C7 PUSH3 0x2DA JUMP JUMPDEST SWAP1 POP PUSH3 0x2D5 DUP3 DUP3 PUSH3 0x390 JUMP JUMPDEST SWAP2 SWAP1 POP JUMP JUMPDEST PUSH1 0x0 PUSH1 0x40 MLOAD SWAP1 POP SWAP1 JUMP JUMPDEST PUSH1 0x0 PUSH8 0xFFFFFFFFFFFFFFFF DUP3 GT ISZERO PUSH3 0x302 JUMPI PUSH3 0x301 PUSH3 0x3F5 JUMP JUMPDEST JUMPDEST PUSH3 0x30D DUP3 PUSH3 0x438 JUMP JUMPDEST SWAP1 POP PUSH1 0x20 DUP2 ADD SWAP1 POP SWAP2 SWAP1 POP JUMP JUMPDEST PUSH1 0x0 DUP2 SWAP1 POP SWAP2 SWAP1 POP JUMP JUMPDEST PUSH1 0x0 JUMPDEST DUP4 DUP2 LT ISZERO PUSH3 0x344 JUMPI DUP1 DUP3 ADD MLOAD DUP2 DUP5 ADD MSTORE PUSH1 0x20 DUP2 ADD SWAP1 POP PUSH3 0x327 JUMP JUMPDEST DUP4 DUP2 GT ISZERO PUSH3 0x354 JUMPI PUSH1 0x0 DUP5 DUP5 ADD MSTORE JUMPDEST POP POP POP POP JUMP JUMPDEST PUSH1 0x0 PUSH1 0x2 DUP3 DIV SWAP1 POP PUSH1 0x1 DUP3 AND DUP1 PUSH3 0x373 JUMPI PUSH1 0x7F DUP3 AND SWAP2 POP JUMPDEST PUSH1 0x20 DUP3 LT DUP2 EQ ISZERO PUSH3 0x38A JUMPI PUSH3 0x389 PUSH3 0x3C6 JUMP JUMPDEST JUMPDEST POP SWAP2 SWAP1 POP JUMP JUMPDEST PUSH3 0x39B DUP3 PUSH3 0x438 JUMP JUMPDEST DUP2 ADD DUP2 DUP2 LT PUSH8 0xFFFFFFFFFFFFFFFF DUP3 GT OR ISZERO PUSH3 0x3BD JUMPI PUSH3 0x3BC PUSH3 0x3F5 JUMP JUMPDEST JUMPDEST DUP1 PUSH1 0x40 MSTORE POP POP POP JUMP JUMPDEST PUSH32 0x4E487B7100000000000000000000000000000000000000000000000000000000 PUSH1 0x0 MSTORE PUSH1 0x22 PUSH1 0x4 MSTORE PUSH1 0x24 PUSH1 0x0 REVERT JUMPDEST PUSH32 0x4E487B7100000000000000000000000000000000000000000000000000000000 PUSH1 0x0 MSTORE PUSH1 0x41 PUSH1 0x4 MSTORE PUSH1 0x24 PUSH1 0x0 REVERT JUMPDEST PUSH1 0x0 DUP1 REVERT JUMPDEST PUSH1 0x0 DUP1 REVERT JUMPDEST PUSH1 0x0 DUP1 REVERT JUMPDEST PUSH1 0x0 DUP1 REVERT JUMPDEST PUSH1 0x0 PUSH1 0x1F NOT PUSH1 0x1F DUP4 ADD AND SWAP1 POP SWAP2 SWAP1 POP JUMP JUMPDEST PUSH3 0x454 DUP2 PUSH3 0x31A JUMP JUMPDEST DUP2 EQ PUSH3 0x460 JUMPI PUSH1 0x0 DUP1 REVERT JUMPDEST POP JUMP JUMPDEST PUSH2 0x15FC DUP1 PUSH3 0x473 PUSH1 0x0 CODECOPY PUSH1 0x0 RETURN INVALID PUSH1 0x80 PUSH1 0x40 MSTORE PUSH1 0x4 CALLDATASIZE LT PUSH2 0xA7 JUMPI PUSH1 0x0 CALLDATALOAD PUSH1 0xE0 SHR DUP1 PUSH4 0x70A08231 GT PUSH2 0x64 JUMPI DUP1 PUSH4 0x70A08231 EQ PUSH2 0x1D2 JUMPI DUP1 PUSH4 0x7E72FB52 EQ PUSH2 0x20F JUMPI DUP1 PUSH4 0x7FF9B596 EQ PUSH2 0x23F JUMPI DUP1 PUSH4 0x95D89B41 EQ PUSH2 0x26A JUMPI DUP1 PUSH4 0xA9059CBB EQ PUSH2 0x295 JUMPI DUP1 PUSH4 0xDD62ED3E EQ PUSH2 0x2D2 JUMPI PUSH2 0xA7 JUMP JUMPDEST DUP1 PUSH4 0x6FDDE03 EQ PUSH2 0xAC JUMPI DUP1 PUSH4 0x95EA7B3 EQ PUSH2 0xD7 JUMPI DUP1 PUSH4 0x18160DDD EQ PUSH2 0x114 JUMPI DUP1 PUSH4 0x23B872DD EQ PUSH2 0x13F JUMPI DUP1 PUSH4 0x313CE567 EQ PUSH2 0x17C JUMPI DUP1 PUSH4 0x324536EB EQ PUSH2 0x1A7 JUMPI JUMPDEST PUSH1 0x0 DUP1 REVERT JUMPDEST CALLVALUE DUP1 ISZERO PUSH2 0xB8 JUMPI PUSH1 0x0 DUP1 REVERT JUMPDEST POP PUSH2 0xC1 PUSH2 0x30F JUMP JUMPDEST PUSH1 0x40 MLOAD PUSH2 0xCE SWAP2 SWAP1 PUSH2 0x11EA JUMP JUMPDEST PUSH1 0x40 MLOAD DUP1 SWAP2 SUB SWAP1 RETURN JUMPDEST CALLVALUE DUP1 ISZERO PUSH2 0xE3 JUMPI PUSH1 0x0 DUP1 REVERT JUMPDEST POP PUSH2 0xFE PUSH1 0x4 DUP1 CALLDATASIZE SUB DUP2 ADD SWAP1 PUSH2 0xF9 SWAP2 SWAP1 PUSH2 0x10AC JUMP JUMPDEST PUSH2 0x39D JUMP JUMPDEST PUSH1 0x40 MLOAD PUSH2 0x10B SWAP2 SWAP1 PUSH2 0x11CF JUMP JUMPDEST PUSH1 0x40 MLOAD DUP1 SWAP2 SUB SWAP1 RETURN JUMPDEST CALLVALUE DUP1 ISZERO PUSH2 0x120 JUMPI PUSH1 0x0 DUP1 REVERT JUMPDEST POP PUSH2 0x129 PUSH2 0x501 JUMP JUMPDEST PUSH1 0x40 MLOAD PUSH2 0x136 SWAP2 SWAP1 PUSH2 0x128C JUMP JUMPDEST PUSH1 0x40 MLOAD DUP1 SWAP2 SUB SWAP1 RETURN JUMPDEST CALLVALUE DUP1 ISZERO PUSH2 0x14B JUMPI PUSH1 0x0 DUP1 REVERT JUMPDEST POP PUSH2 0x166 PUSH1 0x4 DUP1 CALLDATASIZE SUB DUP2 ADD SWAP1 PUSH2 0x161 SWAP2 SWAP1 PUSH2 0x1059 JUMP JUMPDEST PUSH2 0x50B JUMP JUMPDEST PUSH1 0x40 MLOAD PUSH2 0x173 SWAP2 SWAP1 PUSH2 0x11CF JUMP JUMPDEST PUSH1 0x40 MLOAD DUP1 SWAP2 SUB SWAP1 RETURN JUMPDEST CALLVALUE DUP1 ISZERO PUSH2 0x188 JUMPI PUSH1 0x0 DUP1 REVERT JUMPDEST POP PUSH2 0x191 PUSH2 0x959 JUMP JUMPDEST PUSH1 0x40 MLOAD PUSH2 0x19E SWAP2 SWAP1 PUSH2 0x128C JUMP JUMPDEST PUSH1 0x40 MLOAD DUP1 SWAP2 SUB SWAP1 RETURN JUMPDEST CALLVALUE DUP1 ISZERO PUSH2 0x1B3 JUMPI PUSH1 0x0 DUP1 REVERT JUMPDEST POP PUSH2 0x1BC PUSH2 0x95F JUMP JUMPDEST PUSH1 0x40 MLOAD PUSH2 0x1C9 SWAP2 SWAP1 PUSH2 0x128C JUMP JUMPDEST PUSH1 0x40 MLOAD DUP1 SWAP2 SUB SWAP1 RETURN JUMPDEST CALLVALUE DUP1 ISZERO PUSH2 0x1DE JUMPI PUSH1 0x0 DUP1 REVERT JUMPDEST POP PUSH2 0x1F9 PUSH1 0x4 DUP1 CALLDATASIZE SUB DUP2 ADD SWAP1 PUSH2 0x1F4 SWAP2 SWAP1 PUSH2 0xFEC JUMP JUMPDEST PUSH2 0x965 JUMP JUMPDEST PUSH1 0x40 MLOAD PUSH2 0x206 SWAP2 SWAP1 PUSH2 0x128C JUMP JUMPDEST PUSH1 0x40 MLOAD DUP1 SWAP2 SUB SWAP1 RETURN JUMPDEST PUSH2 0x229 PUSH1 0x4 DUP1 CALLDATASIZE SUB DUP2 ADD SWAP1 PUSH2 0x224 SWAP2 SWAP1 PUSH2 0xFEC JUMP JUMPDEST PUSH2 0x9AD JUMP JUMPDEST PUSH1 0x40 MLOAD PUSH2 0x236 SWAP2 SWAP1 PUSH2 0x11CF JUMP JUMPDEST PUSH1 0x40 MLOAD DUP1 SWAP2 SUB SWAP1 RETURN JUMPDEST CALLVALUE DUP1 ISZERO PUSH2 0x24B JUMPI PUSH1 0x0 DUP1 REVERT JUMPDEST POP PUSH2 0x254 PUSH2 0xC22 JUMP JUMPDEST PUSH1 0x40 MLOAD PUSH2 0x261 SWAP2 SWAP1 PUSH2 0x128C JUMP JUMPDEST PUSH1 0x40 MLOAD DUP1 SWAP2 SUB SWAP1 RETURN JUMPDEST CALLVALUE DUP1 ISZERO PUSH2 0x276 JUMPI PUSH1 0x0 DUP1 REVERT JUMPDEST POP PUSH2 0x27F PUSH2 0xC2D JUMP JUMPDEST PUSH1 0x40 MLOAD PUSH2 0x28C SWAP2 SWAP1 PUSH2 0x11EA JUMP JUMPDEST PUSH1 0x40 MLOAD DUP1 SWAP2 SUB SWAP1 RETURN JUMPDEST CALLVALUE DUP1 ISZERO PUSH2 0x2A1 JUMPI PUSH1 0x0 DUP1 REVERT JUMPDEST POP PUSH2 0x2BC PUSH1 0x4 DUP1 CALLDATASIZE SUB DUP2 ADD SWAP1 PUSH2 0x2B7 SWAP2 SWAP1 PUSH2 0x10AC JUMP JUMPDEST PUSH2 0xCBB JUMP JUMPDEST PUSH1 0x40 MLOAD PUSH2 0x2C9 SWAP2 SWAP1 PUSH2 0x11CF JUMP JUMPDEST PUSH1 0x40 MLOAD DUP1 SWAP2 SUB SWAP1 RETURN JUMPDEST CALLVALUE DUP1 ISZERO PUSH2 0x2DE JUMPI PUSH1 0x0 DUP1 REVERT JUMPDEST POP PUSH2 0x2F9 PUSH1 0x4 DUP1 CALLDATASIZE SUB DUP2 ADD SWAP1 PUSH2 0x2F4 SWAP2 SWAP1 PUSH2 0x1019 JUMP JUMPDEST PUSH2 0xF3B JUMP JUMPDEST PUSH1 0x40 MLOAD PUSH2 0x306 SWAP2 SWAP1 PUSH2 0x128C JUMP JUMPDEST PUSH1 0x40 MLOAD DUP1 SWAP2 SUB SWAP1 RETURN JUMPDEST PUSH1 0x4 DUP1 SLOAD PUSH2 0x31C SWAP1 PUSH2 0x13F9 JUMP JUMPDEST DUP1 PUSH1 0x1F ADD PUSH1 0x20 DUP1 SWAP2 DIV MUL PUSH1 0x20 ADD PUSH1 0x40 MLOAD SWAP1 DUP2 ADD PUSH1 0x40 MSTORE DUP1 SWAP3 SWAP2 SWAP1 DUP2 DUP2 MSTORE PUSH1 0x20 ADD DUP3 DUP1 SLOAD PUSH2 0x348 SWAP1 PUSH2 0x13F9 JUMP JUMPDEST DUP1 ISZERO PUSH2 0x395 JUMPI DUP1 PUSH1 0x1F LT PUSH2 0x36A JUMPI PUSH2 0x100 DUP1 DUP4 SLOAD DIV MUL DUP4 MSTORE SWAP2 PUSH1 0x20 ADD SWAP2 PUSH2 0x395 JUMP JUMPDEST DUP3 ADD SWAP2 SWAP1 PUSH1 0x0 MSTORE PUSH1 0x20 PUSH1 0x0 KECCAK256 SWAP1 JUMPDEST DUP2 SLOAD DUP2 MSTORE SWAP1 PUSH1 0x1 ADD SWAP1 PUSH1 0x20 ADD DUP1 DUP4 GT PUSH2 0x378 JUMPI DUP3 SWAP1 SUB PUSH1 0x1F AND DUP3 ADD SWAP2 JUMPDEST POP POP POP POP POP DUP2 JUMP JUMPDEST PUSH1 0x0 DUP3 PUSH1 0x0 PUSH20 0xFFFFFFFFFFFFFFFFFFFFFFFFFFFFFFFFFFFFFFFF AND DUP2 PUSH20 0xFFFFFFFFFFFFFFFFFFFFFFFFFFFFFFFFFFFFFFFF AND EQ ISZERO PUSH2 0x410 JUMPI PUSH1 0x40 MLOAD PUSH32 0x8C379A000000000000000000000000000000000000000000000000000000000 DUP2 MSTORE PUSH1 0x4 ADD PUSH2 0x407 SWAP1 PUSH2 0x120C JUMP JUMPDEST PUSH1 0x40 MLOAD DUP1 SWAP2 SUB SWAP1 REVERT JUMPDEST DUP3 PUSH1 0x1 PUSH1 0x0 CALLER PUSH20 0xFFFFFFFFFFFFFFFFFFFFFFFFFFFFFFFFFFFFFFFF AND PUSH20 0xFFFFFFFFFFFFFFFFFFFFFFFFFFFFFFFFFFFFFFFF AND DUP2 MSTORE PUSH1 0x20 ADD SWAP1 DUP2 MSTORE PUSH1 0x20 ADD PUSH1 0x0 KECCAK256 PUSH1 0x0 DUP7 PUSH20 0xFFFFFFFFFFFFFFFFFFFFFFFFFFFFFFFFFFFFFFFF AND PUSH20 0xFFFFFFFFFFFFFFFFFFFFFFFFFFFFFFFFFFFFFFFF AND DUP2 MSTORE PUSH1 0x20 ADD SWAP1 DUP2 MSTORE PUSH1 0x20 ADD PUSH1 0x0 KECCAK256 DUP2 SWAP1 SSTORE POP DUP4 PUSH20 0xFFFFFFFFFFFFFFFFFFFFFFFFFFFFFFFFFFFFFFFF AND CALLER PUSH20 0xFFFFFFFFFFFFFFFFFFFFFFFFFFFFFFFFFFFFFFFF AND PUSH32 0x8C5BE1E5EBEC7D5BD14F71427D1E84F3DD0314C0F7B2291E5B200AC8C7C3B925 DUP6 PUSH1 0x40 MLOAD PUSH2 0x4EE SWAP2 SWAP1 PUSH2 0x128C JUMP JUMPDEST PUSH1 0x40 MLOAD DUP1 SWAP2 SUB SWAP1 LOG3 PUSH1 0x1 SWAP2 POP POP SWAP3 SWAP2 POP POP JUMP JUMPDEST PUSH1 0x0 PUSH1 0x3 SLOAD SWAP1 POP SWAP1 JUMP JUMPDEST PUSH1 0x0 DUP4 DUP3 PUSH1 0x0 DUP1 DUP4 PUSH20 0xFFFFFFFFFFFFFFFFFFFFFFFFFFFFFFFFFFFFFFFF AND PUSH20 0xFFFFFFFFFFFFFFFFFFFFFFFFFFFFFFFFFFFFFFFF AND DUP2 MSTORE PUSH1 0x20 ADD SWAP1 DUP2 MSTORE PUSH1 0x20 ADD PUSH1 0x0 KECCAK256 SLOAD DUP2 GT ISZERO PUSH2 0x590 JUMPI PUSH1 0x40 MLOAD PUSH32 0x8C379A000000000000000000000000000000000000000000000000000000000 DUP2 MSTORE PUSH1 0x4 ADD PUSH2 0x587 SWAP1 PUSH2 0x126C JUMP JUMPDEST PUSH1 0x40 MLOAD DUP1 SWAP2 SUB SWAP1 REVERT JUMPDEST DUP6 CALLER DUP6 PUSH1 0x1 PUSH1 0x0 DUP5 PUSH20 0xFFFFFFFFFFFFFFFFFFFFFFFFFFFFFFFFFFFFFFFF AND PUSH20 0xFFFFFFFFFFFFFFFFFFFFFFFFFFFFFFFFFFFFFFFF AND DUP2 MSTORE PUSH1 0x20 ADD SWAP1 DUP2 MSTORE PUSH1 0x20 ADD PUSH1 0x0 KECCAK256 PUSH1 0x0 DUP4 PUSH20 0xFFFFFFFFFFFFFFFFFFFFFFFFFFFFFFFFFFFFFFFF AND PUSH20 0xFFFFFFFFFFFFFFFFFFFFFFFFFFFFFFFFFFFFFFFF AND DUP2 MSTORE PUSH1 0x20 ADD SWAP1 DUP2 MSTORE PUSH1 0x20 ADD PUSH1 0x0 KECCAK256 SLOAD DUP2 GT ISZERO PUSH2 0x652 JUMPI PUSH1 0x40 MLOAD PUSH32 0x8C379A000000000000000000000000000000000000000000000000000000000 DUP2 MSTORE PUSH1 0x4 ADD PUSH2 0x649 SWAP1 PUSH2 0x122C JUMP JUMPDEST PUSH1 0x40 MLOAD DUP1 SWAP2 SUB SWAP1 REVERT JUMPDEST DUP8 PUSH1 0x0 PUSH20 0xFFFFFFFFFFFFFFFFFFFFFFFFFFFFFFFFFFFFFFFF AND DUP2 PUSH20 0xFFFFFFFFFFFFFFFFFFFFFFFFFFFFFFFFFFFFFFFF AND EQ ISZERO PUSH2 0x6C3 JUMPI PUSH1 0x40 MLOAD PUSH32 0x8C379A000000000000000000000000000000000000000000000000000000000 DUP2 MSTORE PUSH1 0x4 ADD PUSH2 0x6BA SWAP1 PUSH2 0x120C JUMP JUMPDEST PUSH1 0x40 MLOAD DUP1 SWAP2 SUB SWAP1 REVERT JUMPDEST DUP8 PUSH1 0x1 PUSH1 0x0 DUP13 PUSH20 0xFFFFFFFFFFFFFFFFFFFFFFFFFFFFFFFFFFFFFFFF AND PUSH20 0xFFFFFFFFFFFFFFFFFFFFFFFFFFFFFFFFFFFFFFFF AND DUP2 MSTORE PUSH1 0x20 ADD SWAP1 DUP2 MSTORE PUSH1 0x20 ADD PUSH1 0x0 KECCAK256 PUSH1 0x0 CALLER PUSH20 0xFFFFFFFFFFFFFFFFFFFFFFFFFFFFFFFFFFFFFFFF AND PUSH20 0xFFFFFFFFFFFFFFFFFFFFFFFFFFFFFFFFFFFFFFFF AND DUP2 MSTORE PUSH1 0x20 ADD SWAP1 DUP2 MSTORE PUSH1 0x20 ADD PUSH1 0x0 KECCAK256 SLOAD PUSH2 0x74B SWAP2 SWAP1 PUSH2 0x134A JUMP JUMPDEST PUSH1 0x1 PUSH1 0x0 DUP13 PUSH20 0xFFFFFFFFFFFFFFFFFFFFFFFFFFFFFFFFFFFFFFFF AND PUSH20 0xFFFFFFFFFFFFFFFFFFFFFFFFFFFFFFFFFFFFFFFF AND DUP2 MSTORE PUSH1 0x20 ADD SWAP1 DUP2 MSTORE PUSH1 0x20 ADD PUSH1 0x0 KECCAK256 PUSH1 0x0 CALLER PUSH20 0xFFFFFFFFFFFFFFFFFFFFFFFFFFFFFFFFFFFFFFFF AND PUSH20 0xFFFFFFFFFFFFFFFFFFFFFFFFFFFFFFFFFFFFFFFF AND DUP2 MSTORE PUSH1 0x20 ADD SWAP1 DUP2 MSTORE PUSH1 0x20 ADD PUSH1 0x0 KECCAK256 DUP2 SWAP1 SSTORE POP DUP8 PUSH1 0x0 DUP1 DUP13 PUSH20 0xFFFFFFFFFFFFFFFFFFFFFFFFFFFFFFFFFFFFFFFF AND PUSH20 0xFFFFFFFFFFFFFFFFFFFFFFFFFFFFFFFFFFFFFFFF AND DUP2 MSTORE PUSH1 0x20 ADD SWAP1 DUP2 MSTORE PUSH1 0x20 ADD PUSH1 0x0 KECCAK256 SLOAD PUSH2 0x815 SWAP2 SWAP1 PUSH2 0x134A JUMP JUMPDEST PUSH1 0x0 DUP1 DUP13 PUSH20 0xFFFFFFFFFFFFFFFFFFFFFFFFFFFFFFFFFFFFFFFF AND PUSH20 0xFFFFFFFFFFFFFFFFFFFFFFFFFFFFFFFFFFFFFFFF AND DUP2 MSTORE PUSH1 0x20 ADD SWAP1 DUP2 MSTORE PUSH1 0x20 ADD PUSH1 0x0 KECCAK256 DUP2 SWAP1 SSTORE POP DUP8 PUSH1 0x0 DUP1 DUP12 PUSH20 0xFFFFFFFFFFFFFFFFFFFFFFFFFFFFFFFFFFFFFFFF AND PUSH20 0xFFFFFFFFFFFFFFFFFFFFFFFFFFFFFFFFFFFFFFFF AND DUP2 MSTORE PUSH1 0x20 ADD SWAP1 DUP2 MSTORE PUSH1 0x20 ADD PUSH1 0x0 KECCAK256 SLOAD PUSH2 0x8A1 SWAP2 SWAP1 PUSH2 0x12C3 JUMP JUMPDEST PUSH1 0x0 DUP1 DUP12 PUSH20 0xFFFFFFFFFFFFFFFFFFFFFFFFFFFFFFFFFFFFFFFF AND PUSH20 0xFFFFFFFFFFFFFFFFFFFFFFFFFFFFFFFFFFFFFFFF AND DUP2 MSTORE PUSH1 0x20 ADD SWAP1 DUP2 MSTORE PUSH1 0x20 ADD PUSH1 0x0 KECCAK256 DUP2 SWAP1 SSTORE POP DUP9 PUSH20 0xFFFFFFFFFFFFFFFFFFFFFFFFFFFFFFFFFFFFFFFF AND DUP11 PUSH20 0xFFFFFFFFFFFFFFFFFFFFFFFFFFFFFFFFFFFFFFFF AND PUSH32 0xDDF252AD1BE2C89B69C2B068FC378DAA952BA7F163C4A11628F55A4DF523B3EF DUP11 PUSH1 0x40 MLOAD PUSH2 0x940 SWAP2 SWAP1 PUSH2 0x128C JUMP JUMPDEST PUSH1 0x40 MLOAD DUP1 SWAP2 SUB SWAP1 LOG3 PUSH1 0x1 SWAP7 POP POP POP POP POP POP POP SWAP4 SWAP3 POP POP POP JUMP JUMPDEST PUSH1 0x2 SLOAD DUP2 JUMP JUMPDEST PUSH1 0x3 SLOAD DUP2 JUMP JUMPDEST PUSH1 0x0 DUP1 PUSH1 0x0 DUP4 PUSH20 0xFFFFFFFFFFFFFFFFFFFFFFFFFFFFFFFFFFFFFFFF AND PUSH20 0xFFFFFFFFFFFFFFFFFFFFFFFFFFFFFFFFFFFFFFFF AND DUP2 MSTORE PUSH1 0x20 ADD SWAP1 DUP2 MSTORE PUSH1 0x20 ADD PUSH1 0x0 KECCAK256 SLOAD SWAP1 POP SWAP2 SWAP1 POP JUMP JUMPDEST PUSH1 0x0 DUP2 PUSH1 0x0 PUSH20 0xFFFFFFFFFFFFFFFFFFFFFFFFFFFFFFFFFFFFFFFF AND DUP2 PUSH20 0xFFFFFFFFFFFFFFFFFFFFFFFFFFFFFFFFFFFFFFFF AND EQ ISZERO PUSH2 0xA20 JUMPI PUSH1 0x40 MLOAD PUSH32 0x8C379A000000000000000000000000000000000000000000000000000000000 DUP2 MSTORE PUSH1 0x4 ADD PUSH2 0xA17 SWAP1 PUSH2 0x120C JUMP JUMPDEST PUSH1 0x40 MLOAD DUP1 SWAP2 SUB SWAP1 REVERT JUMPDEST PUSH7 0x38D7EA4C68000 CALLVALUE LT ISZERO PUSH2 0xA6A JUMPI PUSH1 0x40 MLOAD PUSH32 0x8C379A000000000000000000000000000000000000000000000000000000000 DUP2 MSTORE PUSH1 0x4 ADD PUSH2 0xA61 SWAP1 PUSH2 0x124C JUMP JUMPDEST PUSH1 0x40 MLOAD DUP1 SWAP2 SUB SWAP1 REVERT JUMPDEST PUSH1 0x0 PUSH7 0x38D7EA4C68000 CALLVALUE PUSH2 0xA7F SWAP2 SWAP1 PUSH2 0x1319 JUMP JUMPDEST SWAP1 POP DUP1 PUSH1 0x0 DUP1 CALLER PUSH20 0xFFFFFFFFFFFFFFFFFFFFFFFFFFFFFFFFFFFFFFFF AND PUSH20 0xFFFFFFFFFFFFFFFFFFFFFFFFFFFFFFFFFFFFFFFF AND DUP2 MSTORE PUSH1 0x20 ADD SWAP1 DUP2 MSTORE PUSH1 0x20 ADD PUSH1 0x0 KECCAK256 SLOAD PUSH2 0xACB SWAP2 SWAP1 PUSH2 0x134A JUMP JUMPDEST PUSH1 0x0 DUP1 CALLER PUSH20 0xFFFFFFFFFFFFFFFFFFFFFFFFFFFFFFFFFFFFFFFF AND PUSH20 0xFFFFFFFFFFFFFFFFFFFFFFFFFFFFFFFFFFFFFFFF AND DUP2 MSTORE PUSH1 0x20 ADD SWAP1 DUP2 MSTORE PUSH1 0x20 ADD PUSH1 0x0 KECCAK256 DUP2 SWAP1 SSTORE POP DUP1 PUSH1 0x0 DUP1 DUP7 PUSH20 0xFFFFFFFFFFFFFFFFFFFFFFFFFFFFFFFFFFFFFFFF AND PUSH20 0xFFFFFFFFFFFFFFFFFFFFFFFFFFFFFFFFFFFFFFFF AND DUP2 MSTORE PUSH1 0x20 ADD SWAP1 DUP2 MSTORE PUSH1 0x20 ADD PUSH1 0x0 KECCAK256 SLOAD PUSH2 0xB57 SWAP2 SWAP1 PUSH2 0x12C3 JUMP JUMPDEST PUSH1 0x0 DUP1 DUP7 PUSH20 0xFFFFFFFFFFFFFFFFFFFFFFFFFFFFFFFFFFFFFFFF AND PUSH20 0xFFFFFFFFFFFFFFFFFFFFFFFFFFFFFFFFFFFFFFFF AND DUP2 MSTORE PUSH1 0x20 ADD SWAP1 DUP2 MSTORE PUSH1 0x20 ADD PUSH1 0x0 KECCAK256 DUP2 SWAP1 SSTORE POP DUP1 PUSH1 0x3 PUSH1 0x0 DUP3 DUP3 SLOAD PUSH2 0xBAB SWAP2 SWAP1 PUSH2 0x12C3 JUMP JUMPDEST SWAP3 POP POP DUP2 SWAP1 SSTORE POP DUP4 PUSH20 0xFFFFFFFFFFFFFFFFFFFFFFFFFFFFFFFFFFFFFFFF AND CALLER PUSH20 0xFFFFFFFFFFFFFFFFFFFFFFFFFFFFFFFFFFFFFFFF AND PUSH32 0xDDF252AD1BE2C89B69C2B068FC378DAA952BA7F163C4A11628F55A4DF523B3EF DUP4 PUSH1 0x40 MLOAD PUSH2 0xC0F SWAP2 SWAP1 PUSH2 0x128C JUMP JUMPDEST PUSH1 0x40 MLOAD DUP1 SWAP2 SUB SWAP1 LOG3 PUSH1 0x1 SWAP3 POP POP POP SWAP2 SWAP1 POP JUMP JUMPDEST PUSH7 0x38D7EA4C68000 DUP2 JUMP JUMPDEST PUSH1 0x5 DUP1 SLOAD PUSH2 0xC3A SWAP1 PUSH2 0x13F9 JUMP JUMPDEST DUP1 PUSH1 0x1F ADD PUSH1 0x20 DUP1 SWAP2 DIV MUL PUSH1 0x20 ADD PUSH1 0x40 MLOAD SWAP1 DUP2 ADD PUSH1 0x40 MSTORE DUP1 SWAP3 SWAP2 SWAP1 DUP2 DUP2 MSTORE PUSH1 0x20 ADD DUP3 DUP1 SLOAD PUSH2 0xC66 SWAP1 PUSH2 0x13F9 JUMP JUMPDEST DUP1 ISZERO PUSH2 0xCB3 JUMPI DUP1 PUSH1 0x1F LT PUSH2 0xC88 JUMPI PUSH2 0x100 DUP1 DUP4 SLOAD DIV MUL DUP4 MSTORE SWAP2 PUSH1 0x20 ADD SWAP2 PUSH2 0xCB3 JUMP JUMPDEST DUP3 ADD SWAP2 SWAP1 PUSH1 0x0 MSTORE PUSH1 0x20 PUSH1 0x0 KECCAK256 SWAP1 JUMPDEST DUP2 SLOAD DUP2 MSTORE SWAP1 PUSH1 0x1 ADD SWAP1 PUSH1 0x20 ADD DUP1 DUP4 GT PUSH2 0xC96 JUMPI DUP3 SWAP1 SUB PUSH1 0x1F AND DUP3 ADD SWAP2 JUMPDEST POP POP POP POP POP DUP2 JUMP JUMPDEST PUSH1 0x0 CALLER DUP3 PUSH1 0x0 DUP1 DUP4 PUSH20 0xFFFFFFFFFFFFFFFFFFFFFFFFFFFFFFFFFFFFFFFF AND PUSH20 0xFFFFFFFFFFFFFFFFFFFFFFFFFFFFFFFFFFFFFFFF AND DUP2 MSTORE PUSH1 0x20 ADD SWAP1 DUP2 MSTORE PUSH1 0x20 ADD PUSH1 0x0 KECCAK256 SLOAD DUP2 GT ISZERO PUSH2 0xD40 JUMPI PUSH1 0x40 MLOAD PUSH32 0x8C379A000000000000000000000000000000000000000000000000000000000 DUP2 MSTORE PUSH1 0x4 ADD PUSH2 0xD37 SWAP1 PUSH2 0x126C JUMP JUMPDEST PUSH1 0x40 MLOAD DUP1 SWAP2 SUB SWAP1 REVERT JUMPDEST DUP5 PUSH1 0x0 PUSH20 0xFFFFFFFFFFFFFFFFFFFFFFFFFFFFFFFFFFFFFFFF AND DUP2 PUSH20 0xFFFFFFFFFFFFFFFFFFFFFFFFFFFFFFFFFFFFFFFF AND EQ ISZERO PUSH2 0xDB1 JUMPI PUSH1 0x40 MLOAD PUSH32 0x8C379A000000000000000000000000000000000000000000000000000000000 DUP2 MSTORE PUSH1 0x4 ADD PUSH2 0xDA8 SWAP1 PUSH2 0x120C JUMP JUMPDEST PUSH1 0x40 MLOAD DUP1 SWAP2 SUB SWAP1 REVERT JUMPDEST DUP5 PUSH1 0x0 DUP1 CALLER PUSH20 0xFFFFFFFFFFFFFFFFFFFFFFFFFFFFFFFFFFFFFFFF AND PUSH20 0xFFFFFFFFFFFFFFFFFFFFFFFFFFFFFFFFFFFFFFFF AND DUP2 MSTORE PUSH1 0x20 ADD SWAP1 DUP2 MSTORE PUSH1 0x20 ADD PUSH1 0x0 KECCAK256 SLOAD PUSH2 0xDFB SWAP2 SWAP1 PUSH2 0x134A JUMP JUMPDEST PUSH1 0x0 DUP1 CALLER PUSH20 0xFFFFFFFFFFFFFFFFFFFFFFFFFFFFFFFFFFFFFFFF AND PUSH20 0xFFFFFFFFFFFFFFFFFFFFFFFFFFFFFFFFFFFFFFFF AND DUP2 MSTORE PUSH1 0x20 ADD SWAP1 DUP2 MSTORE PUSH1 0x20 ADD PUSH1 0x0 KECCAK256 DUP2 SWAP1 SSTORE POP DUP5 PUSH1 0x0 DUP1 DUP9 PUSH20 0xFFFFFFFFFFFFFFFFFFFFFFFFFFFFFFFFFFFFFFFF AND PUSH20 0xFFFFFFFFFFFFFFFFFFFFFFFFFFFFFFFFFFFFFFFF AND DUP2 MSTORE PUSH1 0x20 ADD SWAP1 DUP2 MSTORE PUSH1 0x20 ADD PUSH1 0x0 KECCAK256 SLOAD PUSH2 0xE87 SWAP2 SWAP1 PUSH2 0x12C3 JUMP JUMPDEST PUSH1 0x0 DUP1 DUP9 PUSH20 0xFFFFFFFFFFFFFFFFFFFFFFFFFFFFFFFFFFFFFFFF AND PUSH20 0xFFFFFFFFFFFFFFFFFFFFFFFFFFFFFFFFFFFFFFFF AND DUP2 MSTORE PUSH1 0x20 ADD SWAP1 DUP2 MSTORE PUSH1 0x20 ADD PUSH1 0x0 KECCAK256 DUP2 SWAP1 SSTORE POP DUP6 PUSH20 0xFFFFFFFFFFFFFFFFFFFFFFFFFFFFFFFFFFFFFFFF AND CALLER PUSH20 0xFFFFFFFFFFFFFFFFFFFFFFFFFFFFFFFFFFFFFFFF AND PUSH32 0xDDF252AD1BE2C89B69C2B068FC378DAA952BA7F163C4A11628F55A4DF523B3EF DUP8 PUSH1 0x40 MLOAD PUSH2 0xF26 SWAP2 SWAP1 PUSH2 0x128C JUMP JUMPDEST PUSH1 0x40 MLOAD DUP1 SWAP2 SUB SWAP1 LOG3 PUSH1 0x1 SWAP4 POP POP POP POP SWAP3 SWAP2 POP POP JUMP JUMPDEST PUSH1 0x0 PUSH1 0x1 PUSH1 0x0 DUP5 PUSH20 0xFFFFFFFFFFFFFFFFFFFFFFFFFFFFFFFFFFFFFFFF AND PUSH20 0xFFFFFFFFFFFFFFFFFFFFFFFFFFFFFFFFFFFFFFFF AND DUP2 MSTORE PUSH1 0x20 ADD SWAP1 DUP2 MSTORE PUSH1 0x20 ADD PUSH1 0x0 KECCAK256 PUSH1 0x0 DUP4 PUSH20 0xFFFFFFFFFFFFFFFFFFFFFFFFFFFFFFFFFFFFFFFF AND PUSH20 0xFFFFFFFFFFFFFFFFFFFFFFFFFFFFFFFFFFFFFFFF AND DUP2 MSTORE PUSH1 0x20 ADD SWAP1 DUP2 MSTORE PUSH1 0x20 ADD PUSH1 0x0 KECCAK256 SLOAD SWAP1 POP SWAP3 SWAP2 POP POP JUMP JUMPDEST PUSH1 0x0 DUP2 CALLDATALOAD SWAP1 POP PUSH2 0xFD1 DUP2 PUSH2 0x1598 JUMP JUMPDEST SWAP3 SWAP2 POP POP JUMP JUMPDEST PUSH1 0x0 DUP2 CALLDATALOAD SWAP1 POP PUSH2 0xFE6 DUP2 PUSH2 0x15AF JUMP JUMPDEST SWAP3 SWAP2 POP POP JUMP JUMPDEST PUSH1 0x0 PUSH1 0x20 DUP3 DUP5 SUB SLT ISZERO PUSH2 0x1002 JUMPI PUSH2 0x1001 PUSH2 0x14B8 JUMP JUMPDEST JUMPDEST PUSH1 0x0 PUSH2 0x1010 DUP5 DUP3 DUP6 ADD PUSH2 0xFC2 JUMP JUMPDEST SWAP2 POP POP SWAP3 SWAP2 POP POP JUMP JUMPDEST PUSH1 0x0 DUP1 PUSH1 0x40 DUP4 DUP6 SUB SLT ISZERO PUSH2 0x1030 JUMPI PUSH2 0x102F PUSH2 0x14B8 JUMP JUMPDEST JUMPDEST PUSH1 0x0 PUSH2 0x103E DUP6 DUP3 DUP7 ADD PUSH2 0xFC2 JUMP JUMPDEST SWAP3 POP POP PUSH1 0x20 PUSH2 0x104F DUP6 DUP3 DUP7 ADD PUSH2 0xFC2 JUMP JUMPDEST SWAP2 POP POP SWAP3 POP SWAP3 SWAP1 POP JUMP JUMPDEST PUSH1 0x0 DUP1 PUSH1 0x0 PUSH1 0x60 DUP5 DUP7 SUB SLT ISZERO PUSH2 0x1072 JUMPI PUSH2 0x1071 PUSH2 0x14B8 JUMP JUMPDEST JUMPDEST PUSH1 0x0 PUSH2 0x1080 DUP7 DUP3 DUP8 ADD PUSH2 0xFC2 JUMP JUMPDEST SWAP4 POP POP PUSH1 0x20 PUSH2 0x1091 DUP7 DUP3 DUP8 ADD PUSH2 0xFC2 JUMP JUMPDEST SWAP3 POP POP PUSH1 0x40 PUSH2 0x10A2 DUP7 DUP3 DUP8 ADD PUSH2 0xFD7 JUMP JUMPDEST SWAP2 POP POP SWAP3 POP SWAP3 POP SWAP3 JUMP JUMPDEST PUSH1 0x0 DUP1 PUSH1 0x40 DUP4 DUP6 SUB SLT ISZERO PUSH2 0x10C3 JUMPI PUSH2 0x10C2 PUSH2 0x14B8 JUMP JUMPDEST JUMPDEST PUSH1 0x0 PUSH2 0x10D1 DUP6 DUP3 DUP7 ADD PUSH2 0xFC2 JUMP JUMPDEST SWAP3 POP POP PUSH1 0x20 PUSH2 0x10E2 DUP6 DUP3 DUP7 ADD PUSH2 0xFD7 JUMP JUMPDEST SWAP2 POP POP SWAP3 POP SWAP3 SWAP1 POP JUMP JUMPDEST PUSH2 0x10F5 DUP2 PUSH2 0x1390 JUMP JUMPDEST DUP3 MSTORE POP POP JUMP JUMPDEST PUSH1 0x0 PUSH2 0x1106 DUP3 PUSH2 0x12A7 JUMP JUMPDEST PUSH2 0x1110 DUP2 DUP6 PUSH2 0x12B2 JUMP JUMPDEST SWAP4 POP PUSH2 0x1120 DUP2 DUP6 PUSH1 0x20 DUP7 ADD PUSH2 0x13C6 JUMP JUMPDEST PUSH2 0x1129 DUP2 PUSH2 0x14BD JUMP JUMPDEST DUP5 ADD SWAP2 POP POP SWAP3 SWAP2 POP POP JUMP JUMPDEST PUSH1 0x0 PUSH2 0x1141 PUSH1 0xF DUP4 PUSH2 0x12B2 JUMP JUMPDEST SWAP2 POP PUSH2 0x114C DUP3 PUSH2 0x14CE JUMP JUMPDEST PUSH1 0x20 DUP3 ADD SWAP1 POP SWAP2 SWAP1 POP JUMP JUMPDEST PUSH1 0x0 PUSH2 0x1164 PUSH1 0x2F DUP4 PUSH2 0x12B2 JUMP JUMPDEST SWAP2 POP PUSH2 0x116F DUP3 PUSH2 0x14F7 JUMP JUMPDEST PUSH1 0x40 DUP3 ADD SWAP1 POP SWAP2 SWAP1 POP JUMP JUMPDEST PUSH1 0x0 PUSH2 0x1187 PUSH1 0x20 DUP4 PUSH2 0x12B2 JUMP JUMPDEST SWAP2 POP PUSH2 0x1192 DUP3 PUSH2 0x1546 JUMP JUMPDEST PUSH1 0x20 DUP3 ADD SWAP1 POP SWAP2 SWAP1 POP JUMP JUMPDEST PUSH1 0x0 PUSH2 0x11AA PUSH1 0x1D DUP4 PUSH2 0x12B2 JUMP JUMPDEST SWAP2 POP PUSH2 0x11B5 DUP3 PUSH2 0x156F JUMP JUMPDEST PUSH1 0x20 DUP3 ADD SWAP1 POP SWAP2 SWAP1 POP JUMP JUMPDEST PUSH2 0x11C9 DUP2 PUSH2 0x13BC JUMP JUMPDEST DUP3 MSTORE POP POP JUMP JUMPDEST PUSH1 0x0 PUSH1 0x20 DUP3 ADD SWAP1 POP PUSH2 0x11E4 PUSH1 0x0 DUP4 ADD DUP5 PUSH2 0x10EC JUMP JUMPDEST SWAP3 SWAP2 POP POP JUMP JUMPDEST PUSH1 0x0 PUSH1 0x20 DUP3 ADD SWAP1 POP DUP2 DUP2 SUB PUSH1 0x0 DUP4 ADD MSTORE PUSH2 0x1204 DUP2 DUP5 PUSH2 0x10FB JUMP JUMPDEST SWAP1 POP SWAP3 SWAP2 POP POP JUMP JUMPDEST PUSH1 0x0 PUSH1 0x20 DUP3 ADD SWAP1 POP DUP2 DUP2 SUB PUSH1 0x0 DUP4 ADD MSTORE PUSH2 0x1225 DUP2 PUSH2 0x1134 JUMP JUMPDEST SWAP1 POP SWAP2 SWAP1 POP JUMP JUMPDEST PUSH1 0x0 PUSH1 0x20 DUP3 ADD SWAP1 POP DUP2 DUP2 SUB PUSH1 0x0 DUP4 ADD MSTORE PUSH2 0x1245 DUP2 PUSH2 0x1157 JUMP JUMPDEST SWAP1 POP SWAP2 SWAP1 POP JUMP JUMPDEST PUSH1 0x0 PUSH1 0x20 DUP3 ADD SWAP1 POP DUP2 DUP2 SUB PUSH1 0x0 DUP4 ADD MSTORE PUSH2 0x1265 DUP2 PUSH2 0x117A JUMP JUMPDEST SWAP1 POP SWAP2 SWAP1 POP JUMP JUMPDEST PUSH1 0x0 PUSH1 0x20 DUP3 ADD SWAP1 POP DUP2 DUP2 SUB PUSH1 0x0 DUP4 ADD MSTORE PUSH2 0x1285 DUP2 PUSH2 0x119D JUMP JUMPDEST SWAP1 POP SWAP2 SWAP1 POP JUMP JUMPDEST PUSH1 0x0 PUSH1 0x20 DUP3 ADD SWAP1 POP PUSH2 0x12A1 PUSH1 0x0 DUP4 ADD DUP5 PUSH2 0x11C0 JUMP JUMPDEST SWAP3 SWAP2 POP POP JUMP JUMPDEST PUSH1 0x0 DUP2 MLOAD SWAP1 POP SWAP2 SWAP1 POP JUMP JUMPDEST PUSH1 0x0 DUP3 DUP3 MSTORE PUSH1 0x20 DUP3 ADD SWAP1 POP SWAP3 SWAP2 POP POP JUMP JUMPDEST PUSH1 0x0 PUSH2 0x12CE DUP3 PUSH2 0x13BC JUMP JUMPDEST SWAP2 POP PUSH2 0x12D9 DUP4 PUSH2 0x13BC JUMP JUMPDEST SWAP3 POP DUP3 PUSH32 0xFFFFFFFFFFFFFFFFFFFFFFFFFFFFFFFFFFFFFFFFFFFFFFFFFFFFFFFFFFFFFFFF SUB DUP3 GT ISZERO PUSH2 0x130E JUMPI PUSH2 0x130D PUSH2 0x142B JUMP JUMPDEST JUMPDEST DUP3 DUP3 ADD SWAP1 POP SWAP3 SWAP2 POP POP JUMP JUMPDEST PUSH1 0x0 PUSH2 0x1324 DUP3 PUSH2 0x13BC JUMP JUMPDEST SWAP2 POP PUSH2 0x132F DUP4 PUSH2 0x13BC JUMP JUMPDEST SWAP3 POP DUP3 PUSH2 0x133F JUMPI PUSH2 0x133E PUSH2 0x145A JUMP JUMPDEST JUMPDEST DUP3 DUP3 DIV SWAP1 POP SWAP3 SWAP2 POP POP JUMP JUMPDEST PUSH1 0x0 PUSH2 0x1355 DUP3 PUSH2 0x13BC JUMP JUMPDEST SWAP2 POP PUSH2 0x1360 DUP4 PUSH2 0x13BC JUMP JUMPDEST SWAP3 POP DUP3 DUP3 LT ISZERO PUSH2 0x1373 JUMPI PUSH2 0x1372 PUSH2 0x142B JUMP JUMPDEST JUMPDEST DUP3 DUP3 SUB SWAP1 POP SWAP3 SWAP2 POP POP JUMP JUMPDEST PUSH1 0x0 PUSH2 0x1389 DUP3 PUSH2 0x139C JUMP JUMPDEST SWAP1 POP SWAP2 SWAP1 POP JUMP JUMPDEST PUSH1 0x0 DUP2 ISZERO ISZERO SWAP1 POP SWAP2 SWAP1 POP JUMP JUMPDEST PUSH1 0x0 PUSH20 0xFFFFFFFFFFFFFFFFFFFFFFFFFFFFFFFFFFFFFFFF DUP3 AND SWAP1 POP SWAP2 SWAP1 POP JUMP JUMPDEST PUSH1 0x0 DUP2 SWAP1 POP SWAP2 SWAP1 POP JUMP JUMPDEST PUSH1 0x0 JUMPDEST DUP4 DUP2 LT ISZERO PUSH2 0x13E4 JUMPI DUP1 DUP3 ADD MLOAD DUP2 DUP5 ADD MSTORE PUSH1 0x20 DUP2 ADD SWAP1 POP PUSH2 0x13C9 JUMP JUMPDEST DUP4 DUP2 GT ISZERO PUSH2 0x13F3 JUMPI PUSH1 0x0 DUP5 DUP5 ADD MSTORE JUMPDEST POP POP POP POP JUMP JUMPDEST PUSH1 0x0 PUSH1 0x2 DUP3 DIV SWAP1 POP PUSH1 0x1 DUP3 AND DUP1 PUSH2 0x1411 JUMPI PUSH1 0x7F DUP3 AND SWAP2 POP JUMPDEST PUSH1 0x20 DUP3 LT DUP2 EQ ISZERO PUSH2 0x1425 JUMPI PUSH2 0x1424 PUSH2 0x1489 JUMP JUMPDEST JUMPDEST POP SWAP2 SWAP1 POP JUMP JUMPDEST PUSH32 0x4E487B7100000000000000000000000000000000000000000000000000000000 PUSH1 0x0 MSTORE PUSH1 0x11 PUSH1 0x4 MSTORE PUSH1 0x24 PUSH1 0x0 REVERT JUMPDEST PUSH32 0x4E487B7100000000000000000000000000000000000000000000000000000000 PUSH1 0x0 MSTORE PUSH1 0x12 PUSH1 0x4 MSTORE PUSH1 0x24 PUSH1 0x0 REVERT JUMPDEST PUSH32 0x4E487B7100000000000000000000000000000000000000000000000000000000 PUSH1 0x0 MSTORE PUSH1 0x22 PUSH1 0x4 MSTORE PUSH1 0x24 PUSH1 0x0 REVERT JUMPDEST PUSH1 0x0 DUP1 REVERT JUMPDEST PUSH1 0x0 PUSH1 0x1F NOT PUSH1 0x1F DUP4 ADD AND SWAP1 POP SWAP2 SWAP1 POP JUMP JUMPDEST PUSH32 0x496E76616C696420616464726573730000000000000000000000000000000000 PUSH1 0x0 DUP3 ADD MSTORE POP JUMP JUMPDEST PUSH32 0x496E73756666696369656E7420616C6C6F77616E636520666F72207468697320 PUSH1 0x0 DUP3 ADD MSTORE PUSH32 0x557365722066726F6D206F776E65720000000000000000000000000000000000 PUSH1 0x20 DUP3 ADD MSTORE POP JUMP JUMPDEST PUSH32 0x4E65656420746F2073656E6420657861637420616D6F756E74206F6620776569 PUSH1 0x0 DUP3 ADD MSTORE POP JUMP JUMPDEST PUSH32 0x496E73756666696369656E742042616C616E636520666F722055736572000000 PUSH1 0x0 DUP3 ADD MSTORE POP JUMP JUMPDEST PUSH2 0x15A1 DUP2 PUSH2 0x137E JUMP JUMPDEST DUP2 EQ PUSH2 0x15AC JUMPI PUSH1 0x0 DUP1 REVERT JUMPDEST POP JUMP JUMPDEST PUSH2 0x15B8 DUP2 PUSH2 0x13BC JUMP JUMPDEST DUP2 EQ PUSH2 0x15C3 JUMPI PUSH1 0x0 DUP1 REVERT JUMPDEST POP JUMP INVALID LOG2 PUSH5 0x6970667358 0x22 SLT KECCAK256 0xE3 GASLIMIT PUSH4 0xC3FC1F91 0x1F DUP10 DUP6 MSIZE DUP1 PUSH29 0xF1D0D87FEF95A0B4B56BDE18798E02CA0CE39F64736F6C634300080700 CALLER "
				},
				"gasEstimates": {
					"creation": {
						"codeDepositCost": "1125600",
						"executionCost": "infinite",
						"totalCost": "infinite"
					},
					"external": {
						"allowance(address,address)": "infinite",
						"approve(address,uint256)": "infinite",
						"balanceOf(address)": "2841",
						"buyToken(address)": "infinite",
						"decimals()": "2518",
						"name()": "infinite",
						"symbol()": "infinite",
						"tokenPrice()": "373",
						"totalSupply()": "2482",
						"totalSupply_()": "2540",
						"transfer(address,uint256)": "infinite",
						"transferFrom(address,address,uint256)": "infinite"
					}
				},
				"methodIdentifiers": {
					"allowance(address,address)": "dd62ed3e",
					"approve(address,uint256)": "095ea7b3",
					"balanceOf(address)": "70a08231",
					"buyToken(address)": "7e72fb52",
					"decimals()": "313ce567",
					"name()": "06fdde03",
					"symbol()": "95d89b41",
					"tokenPrice()": "7ff9b596",
					"totalSupply()": "18160ddd",
					"totalSupply_()": "324536eb",
					"transfer(address,uint256)": "a9059cbb",
					"transferFrom(address,address,uint256)": "23b872dd"
				}
			},
			"userdoc": {
				"kind": "user",
				"methods": {},
				"version": 1
			}
		}
	}
}